{"contracts/RentalMarketplace.sol":{"RentalMarketplace":{"abi":[{"inputs":[{"internalType":"address","name":"owner_","type":"address"},{"internalType":"uint16","name":"platformFeeBps_","type":"uint16"},{"internalType":"address","name":"feeRecipient_","type":"address"}],"stateMutability":"nonpayable","type":"constructor"},{"inputs":[],"name":"EnforcedPause","type":"error"},{"inputs":[],"name":"ExpectedPause","type":"error"},{"inputs":[{"internalType":"address","name":"owner","type":"address"}],"name":"OwnableInvalidOwner","type":"error"},{"inputs":[{"internalType":"address","name":"account","type":"address"}],"name":"OwnableUnauthorizedAccount","type":"error"},{"inputs":[],"name":"ReentrancyGuardReentrantCall","type":"error"},{"anonymous":false,"inputs":[{"indexed":true,"internalType":"address","name":"nft","type":"address"},{"indexed":true,"internalType":"uint256","name":"tokenId","type":"uint256"},{"indexed":true,"internalType":"address","name":"owner","type":"address"}],"name":"Delisted","type":"event"},{"anonymous":false,"inputs":[{"indexed":true,"internalType":"address","name":"nft","type":"address"},{"indexed":true,"internalType":"uint256","name":"tokenId","type":"uint256"},{"indexed":true,"internalType":"address","name":"owner","type":"address"},{"indexed":false,"internalType":"address","name":"token","type":"address"},{"indexed":false,"internalType":"uint256","name":"amount","type":"uint256"}],"name":"DepositClaimed","type":"event"},{"anonymous":false,"inputs":[{"indexed":true,"internalType":"address","name":"nft","type":"address"},{"indexed":true,"internalType":"uint256","name":"tokenId","type":"uint256"},{"indexed":true,"internalType":"address","name":"renter","type":"address"},{"indexed":false,"internalType":"address","name":"token","type":"address"},{"indexed":false,"internalType":"uint256","name":"amount","type":"uint256"}],"name":"DepositRefunded","type":"event"},{"anonymous":false,"inputs":[{"indexed":false,"internalType":"uint16","name":"feeBps","type":"uint16"},{"indexed":false,"internalType":"address","name":"feeRecipient","type":"address"}],"name":"FeeParamsUpdated","type":"event"},{"anonymous":false,"inputs":[{"indexed":false,"internalType":"uint64","name":"minHours","type":"uint64"},{"indexed":false,"internalType":"uint64","name":"maxHours","type":"uint64"}],"name":"LimitsUpdated","type":"event"},{"anonymous":false,"inputs":[{"indexed":true,"internalType":"address","name":"nft","type":"address"},{"indexed":true,"internalType":"uint256","name":"tokenId","type":"uint256"},{"indexed":true,"internalType":"address","name":"owner","type":"address"},{"indexed":false,"internalType":"address","name":"paymentToken","type":"address"},{"indexed":false,"internalType":"uint256","name":"pricePerHour","type":"uint256"},{"indexed":false,"internalType":"bool","name":"requireDeposit","type":"bool"}],"name":"Listed","type":"event"},{"anonymous":false,"inputs":[{"indexed":true,"internalType":"address","name":"previousOwner","type":"address"},{"indexed":true,"internalType":"address","name":"newOwner","type":"address"}],"name":"OwnershipTransferred","type":"event"},{"anonymous":false,"inputs":[{"indexed":false,"internalType":"address","name":"account","type":"address"}],"name":"Paused","type":"event"},{"anonymous":false,"inputs":[{"indexed":true,"internalType":"address","name":"nft","type":"address"},{"indexed":true,"internalType":"uint256","name":"tokenId","type":"uint256"},{"indexed":true,"internalType":"address","name":"renter","type":"address"},{"indexed":false,"internalType":"uint64","name":"hoursRented","type":"uint64"},{"indexed":false,"internalType":"uint256","name":"totalPaid","type":"uint256"},{"indexed":false,"internalType":"address","name":"paymentToken","type":"address"},{"indexed":false,"internalType":"uint256","name":"depositAmount","type":"uint256"}],"name":"Rented","type":"event"},{"anonymous":false,"inputs":[{"indexed":false,"internalType":"address","name":"account","type":"address"}],"name":"Unpaused","type":"event"},{"inputs":[{"internalType":"address","name":"nft","type":"address"},{"internalType":"uint256","name":"tokenId","type":"uint256"}],"name":"claimDeposit","outputs":[],"stateMutability":"nonpayable","type":"function"},{"inputs":[{"internalType":"address","name":"nft","type":"address"},{"internalType":"uint256","name":"tokenId","type":"uint256"}],"name":"delist","outputs":[],"stateMutability":"nonpayable","type":"function"},{"inputs":[{"internalType":"bytes32","name":"","type":"bytes32"}],"name":"deposits","outputs":[{"internalType":"address","name":"renter","type":"address"},{"internalType":"address","name":"token","type":"address"},{"internalType":"uint256","name":"amount","type":"uint256"}],"stateMutability":"view","type":"function"},{"inputs":[],"name":"feeRecipient","outputs":[{"internalType":"address","name":"","type":"address"}],"stateMutability":"view","type":"function"},{"inputs":[{"internalType":"address","name":"nft","type":"address"},{"internalType":"uint256","name":"tokenId","type":"uint256"},{"internalType":"uint256","name":"pricePerHour","type":"uint256"},{"internalType":"address","name":"paymentToken","type":"address"},{"internalType":"bool","name":"requireDeposit","type":"bool"},{"internalType":"uint16","name":"depositBps","type":"uint16"},{"internalType":"uint16","name":"depositCapBps","type":"uint16"}],"name":"listForRent","outputs":[],"stateMutability":"nonpayable","type":"function"},{"inputs":[{"internalType":"bytes32","name":"","type":"bytes32"}],"name":"listings","outputs":[{"internalType":"address","name":"owner","type":"address"},{"internalType":"address","name":"paymentToken","type":"address"},{"internalType":"uint256","name":"pricePerHour","type":"uint256"},{"internalType":"bool","name":"requireDeposit","type":"bool"},{"internalType":"uint16","name":"depositBps","type":"uint16"},{"internalType":"uint16","name":"depositCapBps","type":"uint16"},{"internalType":"bool","name":"active","type":"bool"}],"stateMutability":"view","type":"function"},{"inputs":[],"name":"maxHours","outputs":[{"internalType":"uint64","name":"","type":"uint64"}],"stateMutability":"view","type":"function"},{"inputs":[],"name":"minHours","outputs":[{"internalType":"uint64","name":"","type":"uint64"}],"stateMutability":"view","type":"function"},{"inputs":[],"name":"owner","outputs":[{"internalType":"address","name":"","type":"address"}],"stateMutability":"view","type":"function"},{"inputs":[],"name":"pause","outputs":[],"stateMutability":"nonpayable","type":"function"},{"inputs":[],"name":"paused","outputs":[{"internalType":"bool","name":"","type":"bool"}],"stateMutability":"view","type":"function"},{"inputs":[],"name":"platformFeeBps","outputs":[{"internalType":"uint16","name":"","type":"uint16"}],"stateMutability":"view","type":"function"},{"inputs":[{"internalType":"address","name":"nft","type":"address"},{"internalType":"uint256","name":"tokenId","type":"uint256"}],"name":"refundDeposit","outputs":[],"stateMutability":"nonpayable","type":"function"},{"inputs":[],"name":"renounceOwnership","outputs":[],"stateMutability":"nonpayable","type":"function"},{"inputs":[{"internalType":"address","name":"nft","type":"address"},{"internalType":"uint256","name":"tokenId","type":"uint256"},{"internalType":"uint64","name":"hoursToRent","type":"uint64"}],"name":"rentWithNative","outputs":[],"stateMutability":"payable","type":"function"},{"inputs":[{"internalType":"address","name":"nft","type":"address"},{"internalType":"uint256","name":"tokenId","type":"uint256"},{"internalType":"uint64","name":"hoursToRent","type":"uint64"},{"internalType":"uint256","name":"amount","type":"uint256"},{"internalType":"address","name":"erc20","type":"address"}],"name":"rentWithToken","outputs":[],"stateMutability":"nonpayable","type":"function"},{"inputs":[{"internalType":"uint16","name":"feeBps","type":"uint16"},{"internalType":"address","name":"recipient","type":"address"}],"name":"setFeeParams","outputs":[],"stateMutability":"nonpayable","type":"function"},{"inputs":[{"internalType":"uint64","name":"minH","type":"uint64"},{"internalType":"uint64","name":"maxH","type":"uint64"}],"name":"setHourLimits","outputs":[],"stateMutability":"nonpayable","type":"function"},{"inputs":[{"internalType":"address","name":"newOwner","type":"address"}],"name":"transferOwnership","outputs":[],"stateMutability":"nonpayable","type":"function"},{"inputs":[],"name":"unpause","outputs":[],"stateMutability":"nonpayable","type":"function"}],"evm":{"bytecode":{"linkReferences":{},"object":"608060405260028054600160a01b600160e01b031916600160a01b179055600380546001600160401b0319166102d01790553480156200003e57600080fd5b50604051620027df380380620027df8339810160408190526200006191620001f7565b6001600055826001600160a01b0381166200009757604051631e4fbdf760e01b8152600060048201526024015b60405180910390fd5b620000a28162000180565b506001600160a01b038116620000f05760405162461bcd60e51b815260206004820152601260248201527166656520726563697069656e74207a65726f60701b60448201526064016200008e565b6107d08261ffff161115620001375760405162461bcd60e51b815260206004820152600c60248201526b0cccaca40e8dede40d0d2ced60a31b60448201526064016200008e565b6001805461ffff909316600160a81b0261ffff60a81b1990931692909217909155600280546001600160a01b039092166001600160a01b03199092169190911790555062000249565b600180546001600160a01b03838116610100818102610100600160a81b031985161790945560405193909204169182907f8be0079c531659141344cd1fd0a4f28419497f9722a3daafe3b4186f6b6457e090600090a35050565b80516001600160a01b0381168114620001f257600080fd5b919050565b6000806000606084860312156200020d57600080fd5b6200021884620001da565b9250602084015161ffff811681146200023057600080fd5b91506200024060408501620001da565b90509250925092565b61258680620002596000396000f3fe60806040526004361061011f5760003560e01c8063a1bfe1ba116100a0578063d8e1313b11610064578063d8e1313b14610410578063dc0a416814610430578063e0120cf814610443578063f074258e14610463578063f2fde38b1461048357600080fd5b8063a1bfe1ba146102cd578063a735fe94146102ed578063bf26aa771461030d578063c06b384614610334578063c18b8db41461035457600080fd5b80635c975abb116100e75780635c975abb14610225578063715018a6146102485780638456cb591461025d5780638cc5e533146102725780638da5cb5b146102aa57600080fd5b806322dcd13e146101245780633d4dff7b1461015e5780633f4ba83a146101b657806346904840146101cd5780635215d05414610205575b600080fd5b34801561013057600080fd5b5060015461014690600160a81b900461ffff1681565b60405161ffff90911681526020015b60405180910390f35b34801561016a57600080fd5b506101a76101793660046121ce565b6005602052600090815260409020805460018201546002909201546001600160a01b03918216929091169083565b604051610155939291906121e7565b3480156101c257600080fd5b506101cb6104a3565b005b3480156101d957600080fd5b506002546101ed906001600160a01b031681565b6040516001600160a01b039091168152602001610155565b34801561021157600080fd5b506101cb610220366004612220565b6104b5565b34801561023157600080fd5b5060015460ff166040519015158152602001610155565b34801561025457600080fd5b506101cb6108c9565b34801561026957600080fd5b506101cb6108db565b34801561027e57600080fd5b50600354610292906001600160401b031681565b6040516001600160401b039091168152602001610155565b3480156102b657600080fd5b5060015461010090046001600160a01b03166101ed565b3480156102d957600080fd5b506101cb6102e8366004612220565b6108eb565b3480156102f957600080fd5b506101cb610308366004612268565b610cdf565b34801561031957600080fd5b5060025461029290600160a01b90046001600160401b031681565b34801561034057600080fd5b506101cb61034f3660046122e5565b6112fb565b34801561036057600080fd5b506103c761036f3660046121ce565b60046020526000908152604090208054600182015460028301546003909301546001600160a01b0392831693919092169160ff8082169161ffff61010082048116926301000000830490911691600160281b90041687565b604080516001600160a01b03988916815297909616602088015294860193909352901515606085015261ffff90811660808501521660a0830152151560c082015260e001610155565b34801561041c57600080fd5b506101cb61042b366004612363565b611699565b6101cb61043e366004612396565b61178c565b34801561044f57600080fd5b506101cb61045e3660046123d4565b611c9e565b34801561046f57600080fd5b506101cb61047e366004612220565b611da7565b34801561048f57600080fd5b506101cb61049e36600461240b565b611f48565b6104ab611f86565b6104b3611fb9565b565b6104bd61200b565b60006104c98383612035565b600081815260046020908152604091829020825160e08101845281546001600160a01b0390811682526001830154169281019290925260028101549282019290925260039091015460ff8082161515606084015261ffff610100830481166080850152630100000083041660a0840152600160281b90910416151560c08201819052919250906105745760405162461bcd60e51b815260040161056b9061242f565b60405180910390fd5b80516001600160a01b0316331461059d5760405162461bcd60e51b815260040161056b90612453565b600082815260056020908152604091829020825160608101845281546001600160a01b0390811682526001830154169281019290925260020154918101829052906106175760405162461bcd60e51b815260206004820152600a6024820152691b9bc819195c1bdcda5d60b21b604482015260640161056b565b604051636178f8a560e11b8152600481018590526000906001600160a01b0387169063c2f1f14a90602401602060405180830381865afa15801561065f573d6000803e3d6000fd5b505050506040513d601f19601f820116820180604052508101906106839190612476565b6001600160a01b0316146106c75760405162461bcd60e51b815260206004820152600b60248201526a1b9bdd08195e1c1a5c995960aa1b604482015260640161056b565b6000838152600560209081526040822080546001600160a01b031990811682556001820180549091169055600201919091558101516001600160a01b03166107a557805160408083015190516000926001600160a01b031691908381818185875af1925050503d8060008114610759576040519150601f19603f3d011682016040523d82523d6000602084013e61075e565b606091505b505090508061079f5760405162461bcd60e51b815260206004820152600d60248201526c1c99599d5b990819985a5b1959609a1b604482015260640161056b565b50610861565b60208101518151604080840151905163a9059cbb60e01b81526001600160a01b039283166004820152602481019190915291169063a9059cbb906044016020604051808303816000875af1158015610801573d6000803e3d6000fd5b505050506040513d601f19601f820116820180604052508101906108259190612493565b6108615760405162461bcd60e51b815260206004820152600d60248201526c1c99599d5b990819985a5b1959609a1b604482015260640161056b565b805160208083015160408085015181516001600160a01b03938416815293840152928116928792918916917fae5b12b6ab487fbaf0ce7154bc0e4e861ea8f2b54af4c99269b994068705ac4291015b60405180910390a45050506108c56001600055565b5050565b6108d1611f86565b6104b3600061207d565b6108e3611f86565b6104b36120d7565b6108f361200b565b60006108ff8383612035565b600081815260046020908152604091829020825160e08101845281546001600160a01b0390811682526001830154169281019290925260028101549282019290925260039091015460ff8082161515606084015261ffff610100830481166080850152630100000083041660a0840152600160281b90910416151560c08201819052919250906109a15760405162461bcd60e51b815260040161056b9061242f565b80516001600160a01b031633146109ca5760405162461bcd60e51b815260040161056b90612453565b600082815260056020908152604091829020825160608101845281546001600160a01b039081168252600183015416928101929092526002015491810182905290610a445760405162461bcd60e51b815260206004820152600a6024820152691b9bc819195c1bdcda5d60b21b604482015260640161056b565b604051636178f8a560e11b8152600481018590526000906001600160a01b0387169063c2f1f14a90602401602060405180830381865afa158015610a8c573d6000803e3d6000fd5b505050506040513d601f19601f82011682018060405250810190610ab09190612476565b6001600160a01b031614610af45760405162461bcd60e51b815260206004820152600b60248201526a1b9bdd08195e1c1a5c995960aa1b604482015260640161056b565b6000838152600560209081526040822080546001600160a01b031990811682556001820180549091169055600201919091558101516001600160a01b0316610bd157815160408083015190516000926001600160a01b031691908381818185875af1925050503d8060008114610b86576040519150601f19603f3d011682016040523d82523d6000602084013e610b8b565b606091505b5050905080610bcb5760405162461bcd60e51b815260206004820152600c60248201526b18db185a5b4819985a5b195960a21b604482015260640161056b565b50610c8c565b60208101518251604080840151905163a9059cbb60e01b81526001600160a01b039283166004820152602481019190915291169063a9059cbb906044016020604051808303816000875af1158015610c2d573d6000803e3d6000fd5b505050506040513d601f19601f82011682018060405250810190610c519190612493565b610c8c5760405162461bcd60e51b815260206004820152600c60248201526b18db185a5b4819985a5b195960a21b604482015260640161056b565b815160208083015160408085015181516001600160a01b03938416815293840152928116928792918916917f627d48c78d1900f46776060c7cc08e6d0ae8d28b6a2d230858a532bc2744ed8291016108b0565b610ce761200b565b610cef612112565b6002546001600160401b03600160a01b909104811690841610801590610d2457506003546001600160401b0390811690841611155b610d655760405162461bcd60e51b8152602060048201526012602482015271686f757273206f7574206f662072616e676560701b604482015260640161056b565b6000610d718686612035565b600081815260046020908152604091829020825160e08101845281546001600160a01b0390811682526001830154169281019290925260028101549282019290925260039091015460ff8082161515606084015261ffff610100830481166080850152630100000083041660a0840152600160281b90910416151560c0820181905291925090610e135760405162461bcd60e51b815260040161056b9061242f565b826001600160a01b031681602001516001600160a01b031614610e665760405162461bcd60e51b815260206004820152600b60248201526a3bb937b733903a37b5b2b760a91b604482015260640161056b565b60008281526005602052604090206002015415610eb65760405162461bcd60e51b815260206004820152600e60248201526d185b1c9958591e481c995b9d195960921b604482015260640161056b565b6000856001600160401b03168260400151610ed191906124c6565b90506000610edf8383612136565b9050610eeb81836124dd565b8614610f265760405162461bcd60e51b815260206004820152600a60248201526918985908185b5bdd5b9d60b21b604482015260640161056b565b60015460009061271090610f4590600160a81b900461ffff16856124c6565b610f4f91906124f0565b90506000610f5d8285612512565b6002546040516323b872dd60e01b815291925088916001600160a01b03808416926323b872dd92610f96923392169088906004016121e7565b6020604051808303816000875af1158015610fb5573d6000803e3d6000fd5b505050506040513d601f19601f82011682018060405250810190610fd99190612493565b6110105760405162461bcd60e51b81526020600482015260086024820152673332b2903c3332b960c11b604482015260640161056b565b85516040516323b872dd60e01b81526001600160a01b038316916323b872dd9161104091339187906004016121e7565b6020604051808303816000875af115801561105f573d6000803e3d6000fd5b505050506040513d601f19601f820116820180604052508101906110839190612493565b6110bc5760405162461bcd60e51b815260206004820152600a60248201526937bbb732b9103c3332b960b11b604482015260640161056b565b83156111d3576040516323b872dd60e01b81526001600160a01b038216906323b872dd906110f2903390309089906004016121e7565b6020604051808303816000875af1158015611111573d6000803e3d6000fd5b505050506040513d601f19601f820116820180604052508101906111359190612493565b6111705760405162461bcd60e51b815260206004820152600c60248201526b3232b837b9b4ba103c3332b960a11b604482015260640161056b565b604080516060810182523381526001600160a01b038a8116602080840191825283850189815260008d81526005909252949020925183549083166001600160a01b0319918216178455905160018401805491909316911617905590516002909101555b60006111e18b610e10612525565b6111f4906001600160401b0316426124dd565b6040516370182b2f60e11b8152600481018e90523360248201526001600160401b03821660448201529091506001600160a01b038e169063e030565e90606401600060405180830381600087803b15801561124e57600080fd5b505af1158015611262573d6000803e3d6000fd5b50505050336001600160a01b03168c8e6001600160a01b03167f593824c2309039babaf0427eb4570cb486a3ed1e2d7b09fcc8df033cea5c42288e8a8e8b6040516112da94939291906001600160401b0394909416845260208401929092526001600160a01b03166040830152606082015260800190565b60405180910390a450505050505050506112f46001600055565b5050505050565b611303612112565b6000851161133d5760405162461bcd60e51b8152602060048201526007602482015266070726963653d360cc1b604482015260640161056b565b6040516331a9108f60e11b81526004810187905233906001600160a01b03891690636352211e90602401602060405180830381865afa158015611384573d6000803e3d6000fd5b505050506040513d601f19601f820116820180604052508101906113a89190612476565b6001600160a01b0316146113ce5760405162461bcd60e51b815260040161056b90612453565b60405163e985e9c560e01b81523360048201523060248201526001600160a01b0388169063e985e9c590604401602060405180830381865afa158015611418573d6000803e3d6000fd5b505050506040513d601f19601f8201168201806040525081019061143c9190612493565b806114b8575060405163020604bf60e21b81526004810187905230906001600160a01b0389169063081812fc90602401602060405180830381865afa158015611489573d6000803e3d6000fd5b505050506040513d601f19601f820116820180604052508101906114ad9190612476565b6001600160a01b0316145b6114fa5760405162461bcd60e51b8152602060048201526013602482015272617070726f7665206d61726b6574706c61636560681b604482015260640161056b565b60006115068888612035565b90506040518060e00160405280336001600160a01b03168152602001866001600160a01b0316815260200187815260200185151581526020018461ffff166000146115515784611555565b6113885b61ffff1681526020018361ffff166000146115705783611574565b614e205b61ffff908116825260016020928301819052600085815260048452604090819020855181546001600160a01b03199081166001600160a01b039283161783558787015194830180549091169482169490941790935585820151600282015560608087015160039092018054608089015160a08a015160c0909a015162ffffff1990921694151562ffff00191694909417610100948816949094029390931765ffffff00000019166301000000989096169790970265ff0000000000191694909417600160281b9115159190910217909455835189821681529283018a90528715159383019390935233928a92908c16917fa937126d0d037b0217224eeee33594fce51693c953a3418a7f44629beacbf4eb910160405180910390a45050505050505050565b6116a1611f86565b6001826001600160401b0316101580156116cd5750816001600160401b0316816001600160401b031610155b61170a5760405162461bcd60e51b815260206004820152600e60248201526d696e76616c6964206c696d69747360901b604482015260640161056b565b6002805467ffffffffffffffff60a01b1916600160a01b6001600160401b03858116918202929092179092556003805467ffffffffffffffff191691841691821790556040805192835260208301919091527f24d48e187a24f49e3551ce9d77a89e2a5959da2a1932f86ebab7b3168483ac1b91015b60405180910390a15050565b61179461200b565b61179c612112565b6002546001600160401b03600160a01b9091048116908216108015906117d157506003546001600160401b0390811690821611155b6118125760405162461bcd60e51b8152602060048201526012602482015271686f757273206f7574206f662072616e676560701b604482015260640161056b565b600061181e8484612035565b600081815260046020908152604091829020825160e08101845281546001600160a01b0390811682526001830154169281019290925260028101549282019290925260039091015460ff8082161515606084015261ffff610100830481166080850152630100000083041660a0840152600160281b90910416151560c08201819052919250906118c05760405162461bcd60e51b815260040161056b9061242f565b60208101516001600160a01b03161561190e5760405162461bcd60e51b815260206004820152601060248201526f1d5cd9481d1bdad95b881b595d1a1bd960821b604482015260640161056b565b6000828152600560205260409020600201541561195e5760405162461bcd60e51b815260206004820152600e60248201526d185b1c9958591e481c995b9d195960921b604482015260640161056b565b6000836001600160401b0316826040015161197991906124c6565b905060006119878383612136565b905061199381836124dd565b34146119d15760405162461bcd60e51b815260206004820152600d60248201526c626164206d73672e76616c756560981b604482015260640161056b565b600154600090612710906119f090600160a81b900461ffff16856124c6565b6119fa91906124f0565b90506000611a088285612512565b90506000611a1888610e10612525565b611a2b906001600160401b0316426124dd565b6040516370182b2f60e11b8152600481018b90523360248201526001600160401b03821660448201529091506001600160a01b038b169063e030565e90606401600060405180830381600087803b158015611a8557600080fd5b505af1158015611a99573d6000803e3d6000fd5b5050600254604051600093506001600160a01b03909116915085908381818185875af1925050503d8060008114611aec576040519150601f19603f3d011682016040523d82523d6000602084013e611af1565b606091505b5050905080611b2d5760405162461bcd60e51b81526020600482015260086024820152673332b2903c3332b960c11b604482015260640161056b565b86516040516000916001600160a01b03169085908381818185875af1925050503d8060008114611b79576040519150601f19603f3d011682016040523d82523d6000602084013e611b7e565b606091505b5050905080611bbc5760405162461bcd60e51b815260206004820152600a60248201526937bbb732b9103c3332b960b11b604482015260640161056b565b8515611c235760408051606081018252338152600060208083018281528385018b81528e8452600590925293909120915182546001600160a01b03199081166001600160a01b03928316178455935160018401805490951691161790925590516002909101555b604080516001600160401b038c168152602081018990526000918101919091526060810187905233908c906001600160a01b038f16907f593824c2309039babaf0427eb4570cb486a3ed1e2d7b09fcc8df033cea5c42289060800160405180910390a4505050505050505050611c996001600055565b505050565b611ca6611f86565b6107d08261ffff161115611ceb5760405162461bcd60e51b815260206004820152600c60248201526b0cccaca40e8dede40d0d2ced60a31b604482015260640161056b565b6001600160a01b038116611d325760405162461bcd60e51b815260206004820152600e60248201526d1e995c9bc81c9958da5c1a595b9d60921b604482015260640161056b565b6001805461ffff60a81b1916600160a81b61ffff851690810291909117909155600280546001600160a01b0319166001600160a01b0384169081179091556040805192835260208301919091527f553bd03bb9146c7a9c7ad0a260aed36e8d47650815df076dfb60f9d47e6cf7279101611780565b6000611db38383612035565b600081815260046020908152604091829020825160e08101845281546001600160a01b0390811682526001830154169281019290925260028101549282019290925260039091015460ff8082161515606084015261ffff610100830481166080850152630100000083041660a0840152600160281b90910416151560c0820181905291925090611e555760405162461bcd60e51b815260040161056b9061242f565b80516001600160a01b03163314611e7e5760405162461bcd60e51b815260040161056b90612453565b60008281526005602052604090206002015415611ece5760405162461bcd60e51b815260206004820152600e60248201526d1858dd1a5d994819195c1bdcda5d60921b604482015260640161056b565b60008281526004602052604080822080546001600160a01b03199081168255600182018054909116905560028101839055600301805465ffffffffffff1916905551339185916001600160a01b038816917f9db7ba4a2920e0c8066731bb48bca5ee2a652267b7e73d0502962c29f1e41ead91a450505050565b611f50611f86565b6001600160a01b038116611f7a57604051631e4fbdf760e01b81526000600482015260240161056b565b611f838161207d565b50565b6001546001600160a01b036101009091041633146104b35760405163118cdaa760e01b815233600482015260240161056b565b611fc16121ab565b6001805460ff191690557f5db9ee0a495bf2e6ff9c91a7834c1ba4fdd244a5e8aa4e537bd38aeae4b073aa335b6040516001600160a01b03909116815260200160405180910390a1565b60026000540361202e57604051633ee5aeb560e01b815260040160405180910390fd5b6002600055565b6040516bffffffffffffffffffffffff19606084901b166020820152603481018290526000906054016040516020818303038152906040528051906020012090505b92915050565b600180546001600160a01b03838116610100818102610100600160a81b031985161790945560405193909204169182907f8be0079c531659141344cd1fd0a4f28419497f9722a3daafe3b4186f6b6457e090600090a35050565b6120df612112565b6001805460ff1916811790557f62e78cea01bee320cd4e420270b5ea74000d11b0c9f74754ebdbfc544b05a25833611fee565b60015460ff16156104b35760405163d93c066560e01b815260040160405180910390fd5b6000826060015161214957506000612077565b6000612710846080015161ffff168461216291906124c6565b61216c91906124f0565b905060006127108560a0015161ffff168561218791906124c6565b61219191906124f0565b90508082106121a057806121a2565b815b95945050505050565b60015460ff166104b357604051638dfc202b60e01b815260040160405180910390fd5b6000602082840312156121e057600080fd5b5035919050565b6001600160a01b039384168152919092166020820152604081019190915260600190565b6001600160a01b0381168114611f8357600080fd5b6000806040838503121561223357600080fd5b823561223e8161220b565b946020939093013593505050565b80356001600160401b038116811461226357600080fd5b919050565b600080600080600060a0868803121561228057600080fd5b853561228b8161220b565b9450602086013593506122a06040870161224c565b92506060860135915060808601356122b78161220b565b809150509295509295909350565b8015158114611f8357600080fd5b803561ffff8116811461226357600080fd5b600080600080600080600060e0888a03121561230057600080fd5b873561230b8161220b565b9650602088013595506040880135945060608801356123298161220b565b93506080880135612339816122c5565b925061234760a089016122d3565b915061235560c089016122d3565b905092959891949750929550565b6000806040838503121561237657600080fd5b61237f8361224c565b915061238d6020840161224c565b90509250929050565b6000806000606084860312156123ab57600080fd5b83356123b68161220b565b9250602084013591506123cb6040850161224c565b90509250925092565b600080604083850312156123e757600080fd5b6123f0836122d3565b915060208301356124008161220b565b809150509250929050565b60006020828403121561241d57600080fd5b81356124288161220b565b9392505050565b6020808252600a90820152691b9bdd081b1a5cdd195960b21b604082015260600190565b6020808252600990820152683737ba1037bbb732b960b91b604082015260600190565b60006020828403121561248857600080fd5b81516124288161220b565b6000602082840312156124a557600080fd5b8151612428816122c5565b634e487b7160e01b600052601160045260246000fd5b8082028115828204841417612077576120776124b0565b80820180821115612077576120776124b0565b60008261250d57634e487b7160e01b600052601260045260246000fd5b500490565b81810381811115612077576120776124b0565b6001600160401b03818116838216028082169190828114612548576125486124b0565b50509291505056fea264697066735822122025a5870e940c9e4a080117d273e0e4adfdd622bf1da8c8541b71c057d518be8b64736f6c63430008180033","opcodes":"PUSH1 0x80 PUSH1 0x40 MSTORE PUSH1 0x2 DUP1 SLOAD PUSH1 0x1 PUSH1 0xA0 SHL PUSH1 0x1 PUSH1 0xE0 SHL SUB NOT AND PUSH1 0x1 PUSH1 0xA0 SHL OR SWAP1 SSTORE PUSH1 0x3 DUP1 SLOAD PUSH1 0x1 PUSH1 0x1 PUSH1 0x40 SHL SUB NOT AND PUSH2 0x2D0 OR SWAP1 SSTORE CALLVALUE DUP1 ISZERO PUSH3 0x3E JUMPI PUSH1 0x0 DUP1 REVERT JUMPDEST POP PUSH1 0x40 MLOAD PUSH3 0x27DF CODESIZE SUB DUP1 PUSH3 0x27DF DUP4 CODECOPY DUP2 ADD PUSH1 0x40 DUP2 SWAP1 MSTORE PUSH3 0x61 SWAP2 PUSH3 0x1F7 JUMP JUMPDEST PUSH1 0x1 PUSH1 0x0 SSTORE DUP3 PUSH1 0x1 PUSH1 0x1 PUSH1 0xA0 SHL SUB DUP2 AND PUSH3 0x97 JUMPI PUSH1 0x40 MLOAD PUSH4 0x1E4FBDF7 PUSH1 0xE0 SHL DUP2 MSTORE PUSH1 0x0 PUSH1 0x4 DUP3 ADD MSTORE PUSH1 0x24 ADD JUMPDEST PUSH1 0x40 MLOAD DUP1 SWAP2 SUB SWAP1 REVERT JUMPDEST PUSH3 0xA2 DUP2 PUSH3 0x180 JUMP JUMPDEST POP PUSH1 0x1 PUSH1 0x1 PUSH1 0xA0 SHL SUB DUP2 AND PUSH3 0xF0 JUMPI PUSH1 0x40 MLOAD PUSH3 0x461BCD PUSH1 0xE5 SHL DUP2 MSTORE PUSH1 0x20 PUSH1 0x4 DUP3 ADD MSTORE PUSH1 0x12 PUSH1 0x24 DUP3 ADD MSTORE PUSH18 0x66656520726563697069656E74207A65726F PUSH1 0x70 SHL PUSH1 0x44 DUP3 ADD MSTORE PUSH1 0x64 ADD PUSH3 0x8E JUMP JUMPDEST PUSH2 0x7D0 DUP3 PUSH2 0xFFFF AND GT ISZERO PUSH3 0x137 JUMPI PUSH1 0x40 MLOAD PUSH3 0x461BCD PUSH1 0xE5 SHL DUP2 MSTORE PUSH1 0x20 PUSH1 0x4 DUP3 ADD MSTORE PUSH1 0xC PUSH1 0x24 DUP3 ADD MSTORE PUSH12 0xCCCACA40E8DEDE40D0D2CED PUSH1 0xA3 SHL PUSH1 0x44 DUP3 ADD MSTORE PUSH1 0x64 ADD PUSH3 0x8E JUMP JUMPDEST PUSH1 0x1 DUP1 SLOAD PUSH2 0xFFFF SWAP1 SWAP4 AND PUSH1 0x1 PUSH1 0xA8 SHL MUL PUSH2 0xFFFF PUSH1 0xA8 SHL NOT SWAP1 SWAP4 AND SWAP3 SWAP1 SWAP3 OR SWAP1 SWAP2 SSTORE PUSH1 0x2 DUP1 SLOAD PUSH1 0x1 PUSH1 0x1 PUSH1 0xA0 SHL SUB SWAP1 SWAP3 AND PUSH1 0x1 PUSH1 0x1 PUSH1 0xA0 SHL SUB NOT SWAP1 SWAP3 AND SWAP2 SWAP1 SWAP2 OR SWAP1 SSTORE POP PUSH3 0x249 JUMP JUMPDEST PUSH1 0x1 DUP1 SLOAD PUSH1 0x1 PUSH1 0x1 PUSH1 0xA0 SHL SUB DUP4 DUP2 AND PUSH2 0x100 DUP2 DUP2 MUL PUSH2 0x100 PUSH1 0x1 PUSH1 0xA8 SHL SUB NOT DUP6 AND OR SWAP1 SWAP5 SSTORE PUSH1 0x40 MLOAD SWAP4 SWAP1 SWAP3 DIV AND SWAP2 DUP3 SWAP1 PUSH32 0x8BE0079C531659141344CD1FD0A4F28419497F9722A3DAAFE3B4186F6B6457E0 SWAP1 PUSH1 0x0 SWAP1 LOG3 POP POP JUMP JUMPDEST DUP1 MLOAD PUSH1 0x1 PUSH1 0x1 PUSH1 0xA0 SHL SUB DUP2 AND DUP2 EQ PUSH3 0x1F2 JUMPI PUSH1 0x0 DUP1 REVERT JUMPDEST SWAP2 SWAP1 POP JUMP JUMPDEST PUSH1 0x0 DUP1 PUSH1 0x0 PUSH1 0x60 DUP5 DUP7 SUB SLT ISZERO PUSH3 0x20D JUMPI PUSH1 0x0 DUP1 REVERT JUMPDEST PUSH3 0x218 DUP5 PUSH3 0x1DA JUMP JUMPDEST SWAP3 POP PUSH1 0x20 DUP5 ADD MLOAD PUSH2 0xFFFF DUP2 AND DUP2 EQ PUSH3 0x230 JUMPI PUSH1 0x0 DUP1 REVERT JUMPDEST SWAP2 POP PUSH3 0x240 PUSH1 0x40 DUP6 ADD PUSH3 0x1DA JUMP JUMPDEST SWAP1 POP SWAP3 POP SWAP3 POP SWAP3 JUMP JUMPDEST PUSH2 0x2586 DUP1 PUSH3 0x259 PUSH1 0x0 CODECOPY PUSH1 0x0 RETURN INVALID PUSH1 0x80 PUSH1 0x40 MSTORE PUSH1 0x4 CALLDATASIZE LT PUSH2 0x11F JUMPI PUSH1 0x0 CALLDATALOAD PUSH1 0xE0 SHR DUP1 PUSH4 0xA1BFE1BA GT PUSH2 0xA0 JUMPI DUP1 PUSH4 0xD8E1313B GT PUSH2 0x64 JUMPI DUP1 PUSH4 0xD8E1313B EQ PUSH2 0x410 JUMPI DUP1 PUSH4 0xDC0A4168 EQ PUSH2 0x430 JUMPI DUP1 PUSH4 0xE0120CF8 EQ PUSH2 0x443 JUMPI DUP1 PUSH4 0xF074258E EQ PUSH2 0x463 JUMPI DUP1 PUSH4 0xF2FDE38B EQ PUSH2 0x483 JUMPI PUSH1 0x0 DUP1 REVERT JUMPDEST DUP1 PUSH4 0xA1BFE1BA EQ PUSH2 0x2CD JUMPI DUP1 PUSH4 0xA735FE94 EQ PUSH2 0x2ED JUMPI DUP1 PUSH4 0xBF26AA77 EQ PUSH2 0x30D JUMPI DUP1 PUSH4 0xC06B3846 EQ PUSH2 0x334 JUMPI DUP1 PUSH4 0xC18B8DB4 EQ PUSH2 0x354 JUMPI PUSH1 0x0 DUP1 REVERT JUMPDEST DUP1 PUSH4 0x5C975ABB GT PUSH2 0xE7 JUMPI DUP1 PUSH4 0x5C975ABB EQ PUSH2 0x225 JUMPI DUP1 PUSH4 0x715018A6 EQ PUSH2 0x248 JUMPI DUP1 PUSH4 0x8456CB59 EQ PUSH2 0x25D JUMPI DUP1 PUSH4 0x8CC5E533 EQ PUSH2 0x272 JUMPI DUP1 PUSH4 0x8DA5CB5B EQ PUSH2 0x2AA JUMPI PUSH1 0x0 DUP1 REVERT JUMPDEST DUP1 PUSH4 0x22DCD13E EQ PUSH2 0x124 JUMPI DUP1 PUSH4 0x3D4DFF7B EQ PUSH2 0x15E JUMPI DUP1 PUSH4 0x3F4BA83A EQ PUSH2 0x1B6 JUMPI DUP1 PUSH4 0x46904840 EQ PUSH2 0x1CD JUMPI DUP1 PUSH4 0x5215D054 EQ PUSH2 0x205 JUMPI JUMPDEST PUSH1 0x0 DUP1 REVERT JUMPDEST CALLVALUE DUP1 ISZERO PUSH2 0x130 JUMPI PUSH1 0x0 DUP1 REVERT JUMPDEST POP PUSH1 0x1 SLOAD PUSH2 0x146 SWAP1 PUSH1 0x1 PUSH1 0xA8 SHL SWAP1 DIV PUSH2 0xFFFF AND DUP2 JUMP JUMPDEST PUSH1 0x40 MLOAD PUSH2 0xFFFF SWAP1 SWAP2 AND DUP2 MSTORE PUSH1 0x20 ADD JUMPDEST PUSH1 0x40 MLOAD DUP1 SWAP2 SUB SWAP1 RETURN JUMPDEST CALLVALUE DUP1 ISZERO PUSH2 0x16A JUMPI PUSH1 0x0 DUP1 REVERT JUMPDEST POP PUSH2 0x1A7 PUSH2 0x179 CALLDATASIZE PUSH1 0x4 PUSH2 0x21CE JUMP JUMPDEST PUSH1 0x5 PUSH1 0x20 MSTORE PUSH1 0x0 SWAP1 DUP2 MSTORE PUSH1 0x40 SWAP1 KECCAK256 DUP1 SLOAD PUSH1 0x1 DUP3 ADD SLOAD PUSH1 0x2 SWAP1 SWAP3 ADD SLOAD PUSH1 0x1 PUSH1 0x1 PUSH1 0xA0 SHL SUB SWAP2 DUP3 AND SWAP3 SWAP1 SWAP2 AND SWAP1 DUP4 JUMP JUMPDEST PUSH1 0x40 MLOAD PUSH2 0x155 SWAP4 SWAP3 SWAP2 SWAP1 PUSH2 0x21E7 JUMP JUMPDEST CALLVALUE DUP1 ISZERO PUSH2 0x1C2 JUMPI PUSH1 0x0 DUP1 REVERT JUMPDEST POP PUSH2 0x1CB PUSH2 0x4A3 JUMP JUMPDEST STOP JUMPDEST CALLVALUE DUP1 ISZERO PUSH2 0x1D9 JUMPI PUSH1 0x0 DUP1 REVERT JUMPDEST POP PUSH1 0x2 SLOAD PUSH2 0x1ED SWAP1 PUSH1 0x1 PUSH1 0x1 PUSH1 0xA0 SHL SUB AND DUP2 JUMP JUMPDEST PUSH1 0x40 MLOAD PUSH1 0x1 PUSH1 0x1 PUSH1 0xA0 SHL SUB SWAP1 SWAP2 AND DUP2 MSTORE PUSH1 0x20 ADD PUSH2 0x155 JUMP JUMPDEST CALLVALUE DUP1 ISZERO PUSH2 0x211 JUMPI PUSH1 0x0 DUP1 REVERT JUMPDEST POP PUSH2 0x1CB PUSH2 0x220 CALLDATASIZE PUSH1 0x4 PUSH2 0x2220 JUMP JUMPDEST PUSH2 0x4B5 JUMP JUMPDEST CALLVALUE DUP1 ISZERO PUSH2 0x231 JUMPI PUSH1 0x0 DUP1 REVERT JUMPDEST POP PUSH1 0x1 SLOAD PUSH1 0xFF AND PUSH1 0x40 MLOAD SWAP1 ISZERO ISZERO DUP2 MSTORE PUSH1 0x20 ADD PUSH2 0x155 JUMP JUMPDEST CALLVALUE DUP1 ISZERO PUSH2 0x254 JUMPI PUSH1 0x0 DUP1 REVERT JUMPDEST POP PUSH2 0x1CB PUSH2 0x8C9 JUMP JUMPDEST CALLVALUE DUP1 ISZERO PUSH2 0x269 JUMPI PUSH1 0x0 DUP1 REVERT JUMPDEST POP PUSH2 0x1CB PUSH2 0x8DB JUMP JUMPDEST CALLVALUE DUP1 ISZERO PUSH2 0x27E JUMPI PUSH1 0x0 DUP1 REVERT JUMPDEST POP PUSH1 0x3 SLOAD PUSH2 0x292 SWAP1 PUSH1 0x1 PUSH1 0x1 PUSH1 0x40 SHL SUB AND DUP2 JUMP JUMPDEST PUSH1 0x40 MLOAD PUSH1 0x1 PUSH1 0x1 PUSH1 0x40 SHL SUB SWAP1 SWAP2 AND DUP2 MSTORE PUSH1 0x20 ADD PUSH2 0x155 JUMP JUMPDEST CALLVALUE DUP1 ISZERO PUSH2 0x2B6 JUMPI PUSH1 0x0 DUP1 REVERT JUMPDEST POP PUSH1 0x1 SLOAD PUSH2 0x100 SWAP1 DIV PUSH1 0x1 PUSH1 0x1 PUSH1 0xA0 SHL SUB AND PUSH2 0x1ED JUMP JUMPDEST CALLVALUE DUP1 ISZERO PUSH2 0x2D9 JUMPI PUSH1 0x0 DUP1 REVERT JUMPDEST POP PUSH2 0x1CB PUSH2 0x2E8 CALLDATASIZE PUSH1 0x4 PUSH2 0x2220 JUMP JUMPDEST PUSH2 0x8EB JUMP JUMPDEST CALLVALUE DUP1 ISZERO PUSH2 0x2F9 JUMPI PUSH1 0x0 DUP1 REVERT JUMPDEST POP PUSH2 0x1CB PUSH2 0x308 CALLDATASIZE PUSH1 0x4 PUSH2 0x2268 JUMP JUMPDEST PUSH2 0xCDF JUMP JUMPDEST CALLVALUE DUP1 ISZERO PUSH2 0x319 JUMPI PUSH1 0x0 DUP1 REVERT JUMPDEST POP PUSH1 0x2 SLOAD PUSH2 0x292 SWAP1 PUSH1 0x1 PUSH1 0xA0 SHL SWAP1 DIV PUSH1 0x1 PUSH1 0x1 PUSH1 0x40 SHL SUB AND DUP2 JUMP JUMPDEST CALLVALUE DUP1 ISZERO PUSH2 0x340 JUMPI PUSH1 0x0 DUP1 REVERT JUMPDEST POP PUSH2 0x1CB PUSH2 0x34F CALLDATASIZE PUSH1 0x4 PUSH2 0x22E5 JUMP JUMPDEST PUSH2 0x12FB JUMP JUMPDEST CALLVALUE DUP1 ISZERO PUSH2 0x360 JUMPI PUSH1 0x0 DUP1 REVERT JUMPDEST POP PUSH2 0x3C7 PUSH2 0x36F CALLDATASIZE PUSH1 0x4 PUSH2 0x21CE JUMP JUMPDEST PUSH1 0x4 PUSH1 0x20 MSTORE PUSH1 0x0 SWAP1 DUP2 MSTORE PUSH1 0x40 SWAP1 KECCAK256 DUP1 SLOAD PUSH1 0x1 DUP3 ADD SLOAD PUSH1 0x2 DUP4 ADD SLOAD PUSH1 0x3 SWAP1 SWAP4 ADD SLOAD PUSH1 0x1 PUSH1 0x1 PUSH1 0xA0 SHL SUB SWAP3 DUP4 AND SWAP4 SWAP2 SWAP1 SWAP3 AND SWAP2 PUSH1 0xFF DUP1 DUP3 AND SWAP2 PUSH2 0xFFFF PUSH2 0x100 DUP3 DIV DUP2 AND SWAP3 PUSH4 0x1000000 DUP4 DIV SWAP1 SWAP2 AND SWAP2 PUSH1 0x1 PUSH1 0x28 SHL SWAP1 DIV AND DUP8 JUMP JUMPDEST PUSH1 0x40 DUP1 MLOAD PUSH1 0x1 PUSH1 0x1 PUSH1 0xA0 SHL SUB SWAP9 DUP10 AND DUP2 MSTORE SWAP8 SWAP1 SWAP7 AND PUSH1 0x20 DUP9 ADD MSTORE SWAP5 DUP7 ADD SWAP4 SWAP1 SWAP4 MSTORE SWAP1 ISZERO ISZERO PUSH1 0x60 DUP6 ADD MSTORE PUSH2 0xFFFF SWAP1 DUP2 AND PUSH1 0x80 DUP6 ADD MSTORE AND PUSH1 0xA0 DUP4 ADD MSTORE ISZERO ISZERO PUSH1 0xC0 DUP3 ADD MSTORE PUSH1 0xE0 ADD PUSH2 0x155 JUMP JUMPDEST CALLVALUE DUP1 ISZERO PUSH2 0x41C JUMPI PUSH1 0x0 DUP1 REVERT JUMPDEST POP PUSH2 0x1CB PUSH2 0x42B CALLDATASIZE PUSH1 0x4 PUSH2 0x2363 JUMP JUMPDEST PUSH2 0x1699 JUMP JUMPDEST PUSH2 0x1CB PUSH2 0x43E CALLDATASIZE PUSH1 0x4 PUSH2 0x2396 JUMP JUMPDEST PUSH2 0x178C JUMP JUMPDEST CALLVALUE DUP1 ISZERO PUSH2 0x44F JUMPI PUSH1 0x0 DUP1 REVERT JUMPDEST POP PUSH2 0x1CB PUSH2 0x45E CALLDATASIZE PUSH1 0x4 PUSH2 0x23D4 JUMP JUMPDEST PUSH2 0x1C9E JUMP JUMPDEST CALLVALUE DUP1 ISZERO PUSH2 0x46F JUMPI PUSH1 0x0 DUP1 REVERT JUMPDEST POP PUSH2 0x1CB PUSH2 0x47E CALLDATASIZE PUSH1 0x4 PUSH2 0x2220 JUMP JUMPDEST PUSH2 0x1DA7 JUMP JUMPDEST CALLVALUE DUP1 ISZERO PUSH2 0x48F JUMPI PUSH1 0x0 DUP1 REVERT JUMPDEST POP PUSH2 0x1CB PUSH2 0x49E CALLDATASIZE PUSH1 0x4 PUSH2 0x240B JUMP JUMPDEST PUSH2 0x1F48 JUMP JUMPDEST PUSH2 0x4AB PUSH2 0x1F86 JUMP JUMPDEST PUSH2 0x4B3 PUSH2 0x1FB9 JUMP JUMPDEST JUMP JUMPDEST PUSH2 0x4BD PUSH2 0x200B JUMP JUMPDEST PUSH1 0x0 PUSH2 0x4C9 DUP4 DUP4 PUSH2 0x2035 JUMP JUMPDEST PUSH1 0x0 DUP2 DUP2 MSTORE PUSH1 0x4 PUSH1 0x20 SWAP1 DUP2 MSTORE PUSH1 0x40 SWAP2 DUP3 SWAP1 KECCAK256 DUP3 MLOAD PUSH1 0xE0 DUP2 ADD DUP5 MSTORE DUP2 SLOAD PUSH1 0x1 PUSH1 0x1 PUSH1 0xA0 SHL SUB SWAP1 DUP2 AND DUP3 MSTORE PUSH1 0x1 DUP4 ADD SLOAD AND SWAP3 DUP2 ADD SWAP3 SWAP1 SWAP3 MSTORE PUSH1 0x2 DUP2 ADD SLOAD SWAP3 DUP3 ADD SWAP3 SWAP1 SWAP3 MSTORE PUSH1 0x3 SWAP1 SWAP2 ADD SLOAD PUSH1 0xFF DUP1 DUP3 AND ISZERO ISZERO PUSH1 0x60 DUP5 ADD MSTORE PUSH2 0xFFFF PUSH2 0x100 DUP4 DIV DUP2 AND PUSH1 0x80 DUP6 ADD MSTORE PUSH4 0x1000000 DUP4 DIV AND PUSH1 0xA0 DUP5 ADD MSTORE PUSH1 0x1 PUSH1 0x28 SHL SWAP1 SWAP2 DIV AND ISZERO ISZERO PUSH1 0xC0 DUP3 ADD DUP2 SWAP1 MSTORE SWAP2 SWAP3 POP SWAP1 PUSH2 0x574 JUMPI PUSH1 0x40 MLOAD PUSH3 0x461BCD PUSH1 0xE5 SHL DUP2 MSTORE PUSH1 0x4 ADD PUSH2 0x56B SWAP1 PUSH2 0x242F JUMP JUMPDEST PUSH1 0x40 MLOAD DUP1 SWAP2 SUB SWAP1 REVERT JUMPDEST DUP1 MLOAD PUSH1 0x1 PUSH1 0x1 PUSH1 0xA0 SHL SUB AND CALLER EQ PUSH2 0x59D JUMPI PUSH1 0x40 MLOAD PUSH3 0x461BCD PUSH1 0xE5 SHL DUP2 MSTORE PUSH1 0x4 ADD PUSH2 0x56B SWAP1 PUSH2 0x2453 JUMP JUMPDEST PUSH1 0x0 DUP3 DUP2 MSTORE PUSH1 0x5 PUSH1 0x20 SWAP1 DUP2 MSTORE PUSH1 0x40 SWAP2 DUP3 SWAP1 KECCAK256 DUP3 MLOAD PUSH1 0x60 DUP2 ADD DUP5 MSTORE DUP2 SLOAD PUSH1 0x1 PUSH1 0x1 PUSH1 0xA0 SHL SUB SWAP1 DUP2 AND DUP3 MSTORE PUSH1 0x1 DUP4 ADD SLOAD AND SWAP3 DUP2 ADD SWAP3 SWAP1 SWAP3 MSTORE PUSH1 0x2 ADD SLOAD SWAP2 DUP2 ADD DUP3 SWAP1 MSTORE SWAP1 PUSH2 0x617 JUMPI PUSH1 0x40 MLOAD PUSH3 0x461BCD PUSH1 0xE5 SHL DUP2 MSTORE PUSH1 0x20 PUSH1 0x4 DUP3 ADD MSTORE PUSH1 0xA PUSH1 0x24 DUP3 ADD MSTORE PUSH10 0x1B9BC819195C1BDCDA5D PUSH1 0xB2 SHL PUSH1 0x44 DUP3 ADD MSTORE PUSH1 0x64 ADD PUSH2 0x56B JUMP JUMPDEST PUSH1 0x40 MLOAD PUSH4 0x6178F8A5 PUSH1 0xE1 SHL DUP2 MSTORE PUSH1 0x4 DUP2 ADD DUP6 SWAP1 MSTORE PUSH1 0x0 SWAP1 PUSH1 0x1 PUSH1 0x1 PUSH1 0xA0 SHL SUB DUP8 AND SWAP1 PUSH4 0xC2F1F14A SWAP1 PUSH1 0x24 ADD PUSH1 0x20 PUSH1 0x40 MLOAD DUP1 DUP4 SUB DUP2 DUP7 GAS STATICCALL ISZERO DUP1 ISZERO PUSH2 0x65F JUMPI RETURNDATASIZE PUSH1 0x0 DUP1 RETURNDATACOPY RETURNDATASIZE PUSH1 0x0 REVERT JUMPDEST POP POP POP POP PUSH1 0x40 MLOAD RETURNDATASIZE PUSH1 0x1F NOT PUSH1 0x1F DUP3 ADD AND DUP3 ADD DUP1 PUSH1 0x40 MSTORE POP DUP2 ADD SWAP1 PUSH2 0x683 SWAP2 SWAP1 PUSH2 0x2476 JUMP JUMPDEST PUSH1 0x1 PUSH1 0x1 PUSH1 0xA0 SHL SUB AND EQ PUSH2 0x6C7 JUMPI PUSH1 0x40 MLOAD PUSH3 0x461BCD PUSH1 0xE5 SHL DUP2 MSTORE PUSH1 0x20 PUSH1 0x4 DUP3 ADD MSTORE PUSH1 0xB PUSH1 0x24 DUP3 ADD MSTORE PUSH11 0x1B9BDD08195E1C1A5C9959 PUSH1 0xAA SHL PUSH1 0x44 DUP3 ADD MSTORE PUSH1 0x64 ADD PUSH2 0x56B JUMP JUMPDEST PUSH1 0x0 DUP4 DUP2 MSTORE PUSH1 0x5 PUSH1 0x20 SWAP1 DUP2 MSTORE PUSH1 0x40 DUP3 KECCAK256 DUP1 SLOAD PUSH1 0x1 PUSH1 0x1 PUSH1 0xA0 SHL SUB NOT SWAP1 DUP2 AND DUP3 SSTORE PUSH1 0x1 DUP3 ADD DUP1 SLOAD SWAP1 SWAP2 AND SWAP1 SSTORE PUSH1 0x2 ADD SWAP2 SWAP1 SWAP2 SSTORE DUP2 ADD MLOAD PUSH1 0x1 PUSH1 0x1 PUSH1 0xA0 SHL SUB AND PUSH2 0x7A5 JUMPI DUP1 MLOAD PUSH1 0x40 DUP1 DUP4 ADD MLOAD SWAP1 MLOAD PUSH1 0x0 SWAP3 PUSH1 0x1 PUSH1 0x1 PUSH1 0xA0 SHL SUB AND SWAP2 SWAP1 DUP4 DUP2 DUP2 DUP2 DUP6 DUP8 GAS CALL SWAP3 POP POP POP RETURNDATASIZE DUP1 PUSH1 0x0 DUP2 EQ PUSH2 0x759 JUMPI PUSH1 0x40 MLOAD SWAP2 POP PUSH1 0x1F NOT PUSH1 0x3F RETURNDATASIZE ADD AND DUP3 ADD PUSH1 0x40 MSTORE RETURNDATASIZE DUP3 MSTORE RETURNDATASIZE PUSH1 0x0 PUSH1 0x20 DUP5 ADD RETURNDATACOPY PUSH2 0x75E JUMP JUMPDEST PUSH1 0x60 SWAP2 POP JUMPDEST POP POP SWAP1 POP DUP1 PUSH2 0x79F JUMPI PUSH1 0x40 MLOAD PUSH3 0x461BCD PUSH1 0xE5 SHL DUP2 MSTORE PUSH1 0x20 PUSH1 0x4 DUP3 ADD MSTORE PUSH1 0xD PUSH1 0x24 DUP3 ADD MSTORE PUSH13 0x1C99599D5B990819985A5B1959 PUSH1 0x9A SHL PUSH1 0x44 DUP3 ADD MSTORE PUSH1 0x64 ADD PUSH2 0x56B JUMP JUMPDEST POP PUSH2 0x861 JUMP JUMPDEST PUSH1 0x20 DUP2 ADD MLOAD DUP2 MLOAD PUSH1 0x40 DUP1 DUP5 ADD MLOAD SWAP1 MLOAD PUSH4 0xA9059CBB PUSH1 0xE0 SHL DUP2 MSTORE PUSH1 0x1 PUSH1 0x1 PUSH1 0xA0 SHL SUB SWAP3 DUP4 AND PUSH1 0x4 DUP3 ADD MSTORE PUSH1 0x24 DUP2 ADD SWAP2 SWAP1 SWAP2 MSTORE SWAP2 AND SWAP1 PUSH4 0xA9059CBB SWAP1 PUSH1 0x44 ADD PUSH1 0x20 PUSH1 0x40 MLOAD DUP1 DUP4 SUB DUP2 PUSH1 0x0 DUP8 GAS CALL ISZERO DUP1 ISZERO PUSH2 0x801 JUMPI RETURNDATASIZE PUSH1 0x0 DUP1 RETURNDATACOPY RETURNDATASIZE PUSH1 0x0 REVERT JUMPDEST POP POP POP POP PUSH1 0x40 MLOAD RETURNDATASIZE PUSH1 0x1F NOT PUSH1 0x1F DUP3 ADD AND DUP3 ADD DUP1 PUSH1 0x40 MSTORE POP DUP2 ADD SWAP1 PUSH2 0x825 SWAP2 SWAP1 PUSH2 0x2493 JUMP JUMPDEST PUSH2 0x861 JUMPI PUSH1 0x40 MLOAD PUSH3 0x461BCD PUSH1 0xE5 SHL DUP2 MSTORE PUSH1 0x20 PUSH1 0x4 DUP3 ADD MSTORE PUSH1 0xD PUSH1 0x24 DUP3 ADD MSTORE PUSH13 0x1C99599D5B990819985A5B1959 PUSH1 0x9A SHL PUSH1 0x44 DUP3 ADD MSTORE PUSH1 0x64 ADD PUSH2 0x56B JUMP JUMPDEST DUP1 MLOAD PUSH1 0x20 DUP1 DUP4 ADD MLOAD PUSH1 0x40 DUP1 DUP6 ADD MLOAD DUP2 MLOAD PUSH1 0x1 PUSH1 0x1 PUSH1 0xA0 SHL SUB SWAP4 DUP5 AND DUP2 MSTORE SWAP4 DUP5 ADD MSTORE SWAP3 DUP2 AND SWAP3 DUP8 SWAP3 SWAP2 DUP10 AND SWAP2 PUSH32 0xAE5B12B6AB487FBAF0CE7154BC0E4E861EA8F2B54AF4C99269B994068705AC42 SWAP2 ADD JUMPDEST PUSH1 0x40 MLOAD DUP1 SWAP2 SUB SWAP1 LOG4 POP POP POP PUSH2 0x8C5 PUSH1 0x1 PUSH1 0x0 SSTORE JUMP JUMPDEST POP POP JUMP JUMPDEST PUSH2 0x8D1 PUSH2 0x1F86 JUMP JUMPDEST PUSH2 0x4B3 PUSH1 0x0 PUSH2 0x207D JUMP JUMPDEST PUSH2 0x8E3 PUSH2 0x1F86 JUMP JUMPDEST PUSH2 0x4B3 PUSH2 0x20D7 JUMP JUMPDEST PUSH2 0x8F3 PUSH2 0x200B JUMP JUMPDEST PUSH1 0x0 PUSH2 0x8FF DUP4 DUP4 PUSH2 0x2035 JUMP JUMPDEST PUSH1 0x0 DUP2 DUP2 MSTORE PUSH1 0x4 PUSH1 0x20 SWAP1 DUP2 MSTORE PUSH1 0x40 SWAP2 DUP3 SWAP1 KECCAK256 DUP3 MLOAD PUSH1 0xE0 DUP2 ADD DUP5 MSTORE DUP2 SLOAD PUSH1 0x1 PUSH1 0x1 PUSH1 0xA0 SHL SUB SWAP1 DUP2 AND DUP3 MSTORE PUSH1 0x1 DUP4 ADD SLOAD AND SWAP3 DUP2 ADD SWAP3 SWAP1 SWAP3 MSTORE PUSH1 0x2 DUP2 ADD SLOAD SWAP3 DUP3 ADD SWAP3 SWAP1 SWAP3 MSTORE PUSH1 0x3 SWAP1 SWAP2 ADD SLOAD PUSH1 0xFF DUP1 DUP3 AND ISZERO ISZERO PUSH1 0x60 DUP5 ADD MSTORE PUSH2 0xFFFF PUSH2 0x100 DUP4 DIV DUP2 AND PUSH1 0x80 DUP6 ADD MSTORE PUSH4 0x1000000 DUP4 DIV AND PUSH1 0xA0 DUP5 ADD MSTORE PUSH1 0x1 PUSH1 0x28 SHL SWAP1 SWAP2 DIV AND ISZERO ISZERO PUSH1 0xC0 DUP3 ADD DUP2 SWAP1 MSTORE SWAP2 SWAP3 POP SWAP1 PUSH2 0x9A1 JUMPI PUSH1 0x40 MLOAD PUSH3 0x461BCD PUSH1 0xE5 SHL DUP2 MSTORE PUSH1 0x4 ADD PUSH2 0x56B SWAP1 PUSH2 0x242F JUMP JUMPDEST DUP1 MLOAD PUSH1 0x1 PUSH1 0x1 PUSH1 0xA0 SHL SUB AND CALLER EQ PUSH2 0x9CA JUMPI PUSH1 0x40 MLOAD PUSH3 0x461BCD PUSH1 0xE5 SHL DUP2 MSTORE PUSH1 0x4 ADD PUSH2 0x56B SWAP1 PUSH2 0x2453 JUMP JUMPDEST PUSH1 0x0 DUP3 DUP2 MSTORE PUSH1 0x5 PUSH1 0x20 SWAP1 DUP2 MSTORE PUSH1 0x40 SWAP2 DUP3 SWAP1 KECCAK256 DUP3 MLOAD PUSH1 0x60 DUP2 ADD DUP5 MSTORE DUP2 SLOAD PUSH1 0x1 PUSH1 0x1 PUSH1 0xA0 SHL SUB SWAP1 DUP2 AND DUP3 MSTORE PUSH1 0x1 DUP4 ADD SLOAD AND SWAP3 DUP2 ADD SWAP3 SWAP1 SWAP3 MSTORE PUSH1 0x2 ADD SLOAD SWAP2 DUP2 ADD DUP3 SWAP1 MSTORE SWAP1 PUSH2 0xA44 JUMPI PUSH1 0x40 MLOAD PUSH3 0x461BCD PUSH1 0xE5 SHL DUP2 MSTORE PUSH1 0x20 PUSH1 0x4 DUP3 ADD MSTORE PUSH1 0xA PUSH1 0x24 DUP3 ADD MSTORE PUSH10 0x1B9BC819195C1BDCDA5D PUSH1 0xB2 SHL PUSH1 0x44 DUP3 ADD MSTORE PUSH1 0x64 ADD PUSH2 0x56B JUMP JUMPDEST PUSH1 0x40 MLOAD PUSH4 0x6178F8A5 PUSH1 0xE1 SHL DUP2 MSTORE PUSH1 0x4 DUP2 ADD DUP6 SWAP1 MSTORE PUSH1 0x0 SWAP1 PUSH1 0x1 PUSH1 0x1 PUSH1 0xA0 SHL SUB DUP8 AND SWAP1 PUSH4 0xC2F1F14A SWAP1 PUSH1 0x24 ADD PUSH1 0x20 PUSH1 0x40 MLOAD DUP1 DUP4 SUB DUP2 DUP7 GAS STATICCALL ISZERO DUP1 ISZERO PUSH2 0xA8C JUMPI RETURNDATASIZE PUSH1 0x0 DUP1 RETURNDATACOPY RETURNDATASIZE PUSH1 0x0 REVERT JUMPDEST POP POP POP POP PUSH1 0x40 MLOAD RETURNDATASIZE PUSH1 0x1F NOT PUSH1 0x1F DUP3 ADD AND DUP3 ADD DUP1 PUSH1 0x40 MSTORE POP DUP2 ADD SWAP1 PUSH2 0xAB0 SWAP2 SWAP1 PUSH2 0x2476 JUMP JUMPDEST PUSH1 0x1 PUSH1 0x1 PUSH1 0xA0 SHL SUB AND EQ PUSH2 0xAF4 JUMPI PUSH1 0x40 MLOAD PUSH3 0x461BCD PUSH1 0xE5 SHL DUP2 MSTORE PUSH1 0x20 PUSH1 0x4 DUP3 ADD MSTORE PUSH1 0xB PUSH1 0x24 DUP3 ADD MSTORE PUSH11 0x1B9BDD08195E1C1A5C9959 PUSH1 0xAA SHL PUSH1 0x44 DUP3 ADD MSTORE PUSH1 0x64 ADD PUSH2 0x56B JUMP JUMPDEST PUSH1 0x0 DUP4 DUP2 MSTORE PUSH1 0x5 PUSH1 0x20 SWAP1 DUP2 MSTORE PUSH1 0x40 DUP3 KECCAK256 DUP1 SLOAD PUSH1 0x1 PUSH1 0x1 PUSH1 0xA0 SHL SUB NOT SWAP1 DUP2 AND DUP3 SSTORE PUSH1 0x1 DUP3 ADD DUP1 SLOAD SWAP1 SWAP2 AND SWAP1 SSTORE PUSH1 0x2 ADD SWAP2 SWAP1 SWAP2 SSTORE DUP2 ADD MLOAD PUSH1 0x1 PUSH1 0x1 PUSH1 0xA0 SHL SUB AND PUSH2 0xBD1 JUMPI DUP2 MLOAD PUSH1 0x40 DUP1 DUP4 ADD MLOAD SWAP1 MLOAD PUSH1 0x0 SWAP3 PUSH1 0x1 PUSH1 0x1 PUSH1 0xA0 SHL SUB AND SWAP2 SWAP1 DUP4 DUP2 DUP2 DUP2 DUP6 DUP8 GAS CALL SWAP3 POP POP POP RETURNDATASIZE DUP1 PUSH1 0x0 DUP2 EQ PUSH2 0xB86 JUMPI PUSH1 0x40 MLOAD SWAP2 POP PUSH1 0x1F NOT PUSH1 0x3F RETURNDATASIZE ADD AND DUP3 ADD PUSH1 0x40 MSTORE RETURNDATASIZE DUP3 MSTORE RETURNDATASIZE PUSH1 0x0 PUSH1 0x20 DUP5 ADD RETURNDATACOPY PUSH2 0xB8B JUMP JUMPDEST PUSH1 0x60 SWAP2 POP JUMPDEST POP POP SWAP1 POP DUP1 PUSH2 0xBCB JUMPI PUSH1 0x40 MLOAD PUSH3 0x461BCD PUSH1 0xE5 SHL DUP2 MSTORE PUSH1 0x20 PUSH1 0x4 DUP3 ADD MSTORE PUSH1 0xC PUSH1 0x24 DUP3 ADD MSTORE PUSH12 0x18DB185A5B4819985A5B1959 PUSH1 0xA2 SHL PUSH1 0x44 DUP3 ADD MSTORE PUSH1 0x64 ADD PUSH2 0x56B JUMP JUMPDEST POP PUSH2 0xC8C JUMP JUMPDEST PUSH1 0x20 DUP2 ADD MLOAD DUP3 MLOAD PUSH1 0x40 DUP1 DUP5 ADD MLOAD SWAP1 MLOAD PUSH4 0xA9059CBB PUSH1 0xE0 SHL DUP2 MSTORE PUSH1 0x1 PUSH1 0x1 PUSH1 0xA0 SHL SUB SWAP3 DUP4 AND PUSH1 0x4 DUP3 ADD MSTORE PUSH1 0x24 DUP2 ADD SWAP2 SWAP1 SWAP2 MSTORE SWAP2 AND SWAP1 PUSH4 0xA9059CBB SWAP1 PUSH1 0x44 ADD PUSH1 0x20 PUSH1 0x40 MLOAD DUP1 DUP4 SUB DUP2 PUSH1 0x0 DUP8 GAS CALL ISZERO DUP1 ISZERO PUSH2 0xC2D JUMPI RETURNDATASIZE PUSH1 0x0 DUP1 RETURNDATACOPY RETURNDATASIZE PUSH1 0x0 REVERT JUMPDEST POP POP POP POP PUSH1 0x40 MLOAD RETURNDATASIZE PUSH1 0x1F NOT PUSH1 0x1F DUP3 ADD AND DUP3 ADD DUP1 PUSH1 0x40 MSTORE POP DUP2 ADD SWAP1 PUSH2 0xC51 SWAP2 SWAP1 PUSH2 0x2493 JUMP JUMPDEST PUSH2 0xC8C JUMPI PUSH1 0x40 MLOAD PUSH3 0x461BCD PUSH1 0xE5 SHL DUP2 MSTORE PUSH1 0x20 PUSH1 0x4 DUP3 ADD MSTORE PUSH1 0xC PUSH1 0x24 DUP3 ADD MSTORE PUSH12 0x18DB185A5B4819985A5B1959 PUSH1 0xA2 SHL PUSH1 0x44 DUP3 ADD MSTORE PUSH1 0x64 ADD PUSH2 0x56B JUMP JUMPDEST DUP2 MLOAD PUSH1 0x20 DUP1 DUP4 ADD MLOAD PUSH1 0x40 DUP1 DUP6 ADD MLOAD DUP2 MLOAD PUSH1 0x1 PUSH1 0x1 PUSH1 0xA0 SHL SUB SWAP4 DUP5 AND DUP2 MSTORE SWAP4 DUP5 ADD MSTORE SWAP3 DUP2 AND SWAP3 DUP8 SWAP3 SWAP2 DUP10 AND SWAP2 PUSH32 0x627D48C78D1900F46776060C7CC08E6D0AE8D28B6A2D230858A532BC2744ED82 SWAP2 ADD PUSH2 0x8B0 JUMP JUMPDEST PUSH2 0xCE7 PUSH2 0x200B JUMP JUMPDEST PUSH2 0xCEF PUSH2 0x2112 JUMP JUMPDEST PUSH1 0x2 SLOAD PUSH1 0x1 PUSH1 0x1 PUSH1 0x40 SHL SUB PUSH1 0x1 PUSH1 0xA0 SHL SWAP1 SWAP2 DIV DUP2 AND SWAP1 DUP5 AND LT DUP1 ISZERO SWAP1 PUSH2 0xD24 JUMPI POP PUSH1 0x3 SLOAD PUSH1 0x1 PUSH1 0x1 PUSH1 0x40 SHL SUB SWAP1 DUP2 AND SWAP1 DUP5 AND GT ISZERO JUMPDEST PUSH2 0xD65 JUMPI PUSH1 0x40 MLOAD PUSH3 0x461BCD PUSH1 0xE5 SHL DUP2 MSTORE PUSH1 0x20 PUSH1 0x4 DUP3 ADD MSTORE PUSH1 0x12 PUSH1 0x24 DUP3 ADD MSTORE PUSH18 0x686F757273206F7574206F662072616E6765 PUSH1 0x70 SHL PUSH1 0x44 DUP3 ADD MSTORE PUSH1 0x64 ADD PUSH2 0x56B JUMP JUMPDEST PUSH1 0x0 PUSH2 0xD71 DUP7 DUP7 PUSH2 0x2035 JUMP JUMPDEST PUSH1 0x0 DUP2 DUP2 MSTORE PUSH1 0x4 PUSH1 0x20 SWAP1 DUP2 MSTORE PUSH1 0x40 SWAP2 DUP3 SWAP1 KECCAK256 DUP3 MLOAD PUSH1 0xE0 DUP2 ADD DUP5 MSTORE DUP2 SLOAD PUSH1 0x1 PUSH1 0x1 PUSH1 0xA0 SHL SUB SWAP1 DUP2 AND DUP3 MSTORE PUSH1 0x1 DUP4 ADD SLOAD AND SWAP3 DUP2 ADD SWAP3 SWAP1 SWAP3 MSTORE PUSH1 0x2 DUP2 ADD SLOAD SWAP3 DUP3 ADD SWAP3 SWAP1 SWAP3 MSTORE PUSH1 0x3 SWAP1 SWAP2 ADD SLOAD PUSH1 0xFF DUP1 DUP3 AND ISZERO ISZERO PUSH1 0x60 DUP5 ADD MSTORE PUSH2 0xFFFF PUSH2 0x100 DUP4 DIV DUP2 AND PUSH1 0x80 DUP6 ADD MSTORE PUSH4 0x1000000 DUP4 DIV AND PUSH1 0xA0 DUP5 ADD MSTORE PUSH1 0x1 PUSH1 0x28 SHL SWAP1 SWAP2 DIV AND ISZERO ISZERO PUSH1 0xC0 DUP3 ADD DUP2 SWAP1 MSTORE SWAP2 SWAP3 POP SWAP1 PUSH2 0xE13 JUMPI PUSH1 0x40 MLOAD PUSH3 0x461BCD PUSH1 0xE5 SHL DUP2 MSTORE PUSH1 0x4 ADD PUSH2 0x56B SWAP1 PUSH2 0x242F JUMP JUMPDEST DUP3 PUSH1 0x1 PUSH1 0x1 PUSH1 0xA0 SHL SUB AND DUP2 PUSH1 0x20 ADD MLOAD PUSH1 0x1 PUSH1 0x1 PUSH1 0xA0 SHL SUB AND EQ PUSH2 0xE66 JUMPI PUSH1 0x40 MLOAD PUSH3 0x461BCD PUSH1 0xE5 SHL DUP2 MSTORE PUSH1 0x20 PUSH1 0x4 DUP3 ADD MSTORE PUSH1 0xB PUSH1 0x24 DUP3 ADD MSTORE PUSH11 0x3BB937B733903A37B5B2B7 PUSH1 0xA9 SHL PUSH1 0x44 DUP3 ADD MSTORE PUSH1 0x64 ADD PUSH2 0x56B JUMP JUMPDEST PUSH1 0x0 DUP3 DUP2 MSTORE PUSH1 0x5 PUSH1 0x20 MSTORE PUSH1 0x40 SWAP1 KECCAK256 PUSH1 0x2 ADD SLOAD ISZERO PUSH2 0xEB6 JUMPI PUSH1 0x40 MLOAD PUSH3 0x461BCD PUSH1 0xE5 SHL DUP2 MSTORE PUSH1 0x20 PUSH1 0x4 DUP3 ADD MSTORE PUSH1 0xE PUSH1 0x24 DUP3 ADD MSTORE PUSH14 0x185B1C9958591E481C995B9D1959 PUSH1 0x92 SHL PUSH1 0x44 DUP3 ADD MSTORE PUSH1 0x64 ADD PUSH2 0x56B JUMP JUMPDEST PUSH1 0x0 DUP6 PUSH1 0x1 PUSH1 0x1 PUSH1 0x40 SHL SUB AND DUP3 PUSH1 0x40 ADD MLOAD PUSH2 0xED1 SWAP2 SWAP1 PUSH2 0x24C6 JUMP JUMPDEST SWAP1 POP PUSH1 0x0 PUSH2 0xEDF DUP4 DUP4 PUSH2 0x2136 JUMP JUMPDEST SWAP1 POP PUSH2 0xEEB DUP2 DUP4 PUSH2 0x24DD JUMP JUMPDEST DUP7 EQ PUSH2 0xF26 JUMPI PUSH1 0x40 MLOAD PUSH3 0x461BCD PUSH1 0xE5 SHL DUP2 MSTORE PUSH1 0x20 PUSH1 0x4 DUP3 ADD MSTORE PUSH1 0xA PUSH1 0x24 DUP3 ADD MSTORE PUSH10 0x18985908185B5BDD5B9D PUSH1 0xB2 SHL PUSH1 0x44 DUP3 ADD MSTORE PUSH1 0x64 ADD PUSH2 0x56B JUMP JUMPDEST PUSH1 0x1 SLOAD PUSH1 0x0 SWAP1 PUSH2 0x2710 SWAP1 PUSH2 0xF45 SWAP1 PUSH1 0x1 PUSH1 0xA8 SHL SWAP1 DIV PUSH2 0xFFFF AND DUP6 PUSH2 0x24C6 JUMP JUMPDEST PUSH2 0xF4F SWAP2 SWAP1 PUSH2 0x24F0 JUMP JUMPDEST SWAP1 POP PUSH1 0x0 PUSH2 0xF5D DUP3 DUP6 PUSH2 0x2512 JUMP JUMPDEST PUSH1 0x2 SLOAD PUSH1 0x40 MLOAD PUSH4 0x23B872DD PUSH1 0xE0 SHL DUP2 MSTORE SWAP2 SWAP3 POP DUP9 SWAP2 PUSH1 0x1 PUSH1 0x1 PUSH1 0xA0 SHL SUB DUP1 DUP5 AND SWAP3 PUSH4 0x23B872DD SWAP3 PUSH2 0xF96 SWAP3 CALLER SWAP3 AND SWAP1 DUP9 SWAP1 PUSH1 0x4 ADD PUSH2 0x21E7 JUMP JUMPDEST PUSH1 0x20 PUSH1 0x40 MLOAD DUP1 DUP4 SUB DUP2 PUSH1 0x0 DUP8 GAS CALL ISZERO DUP1 ISZERO PUSH2 0xFB5 JUMPI RETURNDATASIZE PUSH1 0x0 DUP1 RETURNDATACOPY RETURNDATASIZE PUSH1 0x0 REVERT JUMPDEST POP POP POP POP PUSH1 0x40 MLOAD RETURNDATASIZE PUSH1 0x1F NOT PUSH1 0x1F DUP3 ADD AND DUP3 ADD DUP1 PUSH1 0x40 MSTORE POP DUP2 ADD SWAP1 PUSH2 0xFD9 SWAP2 SWAP1 PUSH2 0x2493 JUMP JUMPDEST PUSH2 0x1010 JUMPI PUSH1 0x40 MLOAD PUSH3 0x461BCD PUSH1 0xE5 SHL DUP2 MSTORE PUSH1 0x20 PUSH1 0x4 DUP3 ADD MSTORE PUSH1 0x8 PUSH1 0x24 DUP3 ADD MSTORE PUSH8 0x3332B2903C3332B9 PUSH1 0xC1 SHL PUSH1 0x44 DUP3 ADD MSTORE PUSH1 0x64 ADD PUSH2 0x56B JUMP JUMPDEST DUP6 MLOAD PUSH1 0x40 MLOAD PUSH4 0x23B872DD PUSH1 0xE0 SHL DUP2 MSTORE PUSH1 0x1 PUSH1 0x1 PUSH1 0xA0 SHL SUB DUP4 AND SWAP2 PUSH4 0x23B872DD SWAP2 PUSH2 0x1040 SWAP2 CALLER SWAP2 DUP8 SWAP1 PUSH1 0x4 ADD PUSH2 0x21E7 JUMP JUMPDEST PUSH1 0x20 PUSH1 0x40 MLOAD DUP1 DUP4 SUB DUP2 PUSH1 0x0 DUP8 GAS CALL ISZERO DUP1 ISZERO PUSH2 0x105F JUMPI RETURNDATASIZE PUSH1 0x0 DUP1 RETURNDATACOPY RETURNDATASIZE PUSH1 0x0 REVERT JUMPDEST POP POP POP POP PUSH1 0x40 MLOAD RETURNDATASIZE PUSH1 0x1F NOT PUSH1 0x1F DUP3 ADD AND DUP3 ADD DUP1 PUSH1 0x40 MSTORE POP DUP2 ADD SWAP1 PUSH2 0x1083 SWAP2 SWAP1 PUSH2 0x2493 JUMP JUMPDEST PUSH2 0x10BC JUMPI PUSH1 0x40 MLOAD PUSH3 0x461BCD PUSH1 0xE5 SHL DUP2 MSTORE PUSH1 0x20 PUSH1 0x4 DUP3 ADD MSTORE PUSH1 0xA PUSH1 0x24 DUP3 ADD MSTORE PUSH10 0x37BBB732B9103C3332B9 PUSH1 0xB1 SHL PUSH1 0x44 DUP3 ADD MSTORE PUSH1 0x64 ADD PUSH2 0x56B JUMP JUMPDEST DUP4 ISZERO PUSH2 0x11D3 JUMPI PUSH1 0x40 MLOAD PUSH4 0x23B872DD PUSH1 0xE0 SHL DUP2 MSTORE PUSH1 0x1 PUSH1 0x1 PUSH1 0xA0 SHL SUB DUP3 AND SWAP1 PUSH4 0x23B872DD SWAP1 PUSH2 0x10F2 SWAP1 CALLER SWAP1 ADDRESS SWAP1 DUP10 SWAP1 PUSH1 0x4 ADD PUSH2 0x21E7 JUMP JUMPDEST PUSH1 0x20 PUSH1 0x40 MLOAD DUP1 DUP4 SUB DUP2 PUSH1 0x0 DUP8 GAS CALL ISZERO DUP1 ISZERO PUSH2 0x1111 JUMPI RETURNDATASIZE PUSH1 0x0 DUP1 RETURNDATACOPY RETURNDATASIZE PUSH1 0x0 REVERT JUMPDEST POP POP POP POP PUSH1 0x40 MLOAD RETURNDATASIZE PUSH1 0x1F NOT PUSH1 0x1F DUP3 ADD AND DUP3 ADD DUP1 PUSH1 0x40 MSTORE POP DUP2 ADD SWAP1 PUSH2 0x1135 SWAP2 SWAP1 PUSH2 0x2493 JUMP JUMPDEST PUSH2 0x1170 JUMPI PUSH1 0x40 MLOAD PUSH3 0x461BCD PUSH1 0xE5 SHL DUP2 MSTORE PUSH1 0x20 PUSH1 0x4 DUP3 ADD MSTORE PUSH1 0xC PUSH1 0x24 DUP3 ADD MSTORE PUSH12 0x3232B837B9B4BA103C3332B9 PUSH1 0xA1 SHL PUSH1 0x44 DUP3 ADD MSTORE PUSH1 0x64 ADD PUSH2 0x56B JUMP JUMPDEST PUSH1 0x40 DUP1 MLOAD PUSH1 0x60 DUP2 ADD DUP3 MSTORE CALLER DUP2 MSTORE PUSH1 0x1 PUSH1 0x1 PUSH1 0xA0 SHL SUB DUP11 DUP2 AND PUSH1 0x20 DUP1 DUP5 ADD SWAP2 DUP3 MSTORE DUP4 DUP6 ADD DUP10 DUP2 MSTORE PUSH1 0x0 DUP14 DUP2 MSTORE PUSH1 0x5 SWAP1 SWAP3 MSTORE SWAP5 SWAP1 KECCAK256 SWAP3 MLOAD DUP4 SLOAD SWAP1 DUP4 AND PUSH1 0x1 PUSH1 0x1 PUSH1 0xA0 SHL SUB NOT SWAP2 DUP3 AND OR DUP5 SSTORE SWAP1 MLOAD PUSH1 0x1 DUP5 ADD DUP1 SLOAD SWAP2 SWAP1 SWAP4 AND SWAP2 AND OR SWAP1 SSTORE SWAP1 MLOAD PUSH1 0x2 SWAP1 SWAP2 ADD SSTORE JUMPDEST PUSH1 0x0 PUSH2 0x11E1 DUP12 PUSH2 0xE10 PUSH2 0x2525 JUMP JUMPDEST PUSH2 0x11F4 SWAP1 PUSH1 0x1 PUSH1 0x1 PUSH1 0x40 SHL SUB AND TIMESTAMP PUSH2 0x24DD JUMP JUMPDEST PUSH1 0x40 MLOAD PUSH4 0x70182B2F PUSH1 0xE1 SHL DUP2 MSTORE PUSH1 0x4 DUP2 ADD DUP15 SWAP1 MSTORE CALLER PUSH1 0x24 DUP3 ADD MSTORE PUSH1 0x1 PUSH1 0x1 PUSH1 0x40 SHL SUB DUP3 AND PUSH1 0x44 DUP3 ADD MSTORE SWAP1 SWAP2 POP PUSH1 0x1 PUSH1 0x1 PUSH1 0xA0 SHL SUB DUP15 AND SWAP1 PUSH4 0xE030565E SWAP1 PUSH1 0x64 ADD PUSH1 0x0 PUSH1 0x40 MLOAD DUP1 DUP4 SUB DUP2 PUSH1 0x0 DUP8 DUP1 EXTCODESIZE ISZERO DUP1 ISZERO PUSH2 0x124E JUMPI PUSH1 0x0 DUP1 REVERT JUMPDEST POP GAS CALL ISZERO DUP1 ISZERO PUSH2 0x1262 JUMPI RETURNDATASIZE PUSH1 0x0 DUP1 RETURNDATACOPY RETURNDATASIZE PUSH1 0x0 REVERT JUMPDEST POP POP POP POP CALLER PUSH1 0x1 PUSH1 0x1 PUSH1 0xA0 SHL SUB AND DUP13 DUP15 PUSH1 0x1 PUSH1 0x1 PUSH1 0xA0 SHL SUB AND PUSH32 0x593824C2309039BABAF0427EB4570CB486A3ED1E2D7B09FCC8DF033CEA5C4228 DUP15 DUP11 DUP15 DUP12 PUSH1 0x40 MLOAD PUSH2 0x12DA SWAP5 SWAP4 SWAP3 SWAP2 SWAP1 PUSH1 0x1 PUSH1 0x1 PUSH1 0x40 SHL SUB SWAP5 SWAP1 SWAP5 AND DUP5 MSTORE PUSH1 0x20 DUP5 ADD SWAP3 SWAP1 SWAP3 MSTORE PUSH1 0x1 PUSH1 0x1 PUSH1 0xA0 SHL SUB AND PUSH1 0x40 DUP4 ADD MSTORE PUSH1 0x60 DUP3 ADD MSTORE PUSH1 0x80 ADD SWAP1 JUMP JUMPDEST PUSH1 0x40 MLOAD DUP1 SWAP2 SUB SWAP1 LOG4 POP POP POP POP POP POP POP POP PUSH2 0x12F4 PUSH1 0x1 PUSH1 0x0 SSTORE JUMP JUMPDEST POP POP POP POP POP JUMP JUMPDEST PUSH2 0x1303 PUSH2 0x2112 JUMP JUMPDEST PUSH1 0x0 DUP6 GT PUSH2 0x133D JUMPI PUSH1 0x40 MLOAD PUSH3 0x461BCD PUSH1 0xE5 SHL DUP2 MSTORE PUSH1 0x20 PUSH1 0x4 DUP3 ADD MSTORE PUSH1 0x7 PUSH1 0x24 DUP3 ADD MSTORE PUSH7 0x70726963653D3 PUSH1 0xCC SHL PUSH1 0x44 DUP3 ADD MSTORE PUSH1 0x64 ADD PUSH2 0x56B JUMP JUMPDEST PUSH1 0x40 MLOAD PUSH4 0x31A9108F PUSH1 0xE1 SHL DUP2 MSTORE PUSH1 0x4 DUP2 ADD DUP8 SWAP1 MSTORE CALLER SWAP1 PUSH1 0x1 PUSH1 0x1 PUSH1 0xA0 SHL SUB DUP10 AND SWAP1 PUSH4 0x6352211E SWAP1 PUSH1 0x24 ADD PUSH1 0x20 PUSH1 0x40 MLOAD DUP1 DUP4 SUB DUP2 DUP7 GAS STATICCALL ISZERO DUP1 ISZERO PUSH2 0x1384 JUMPI RETURNDATASIZE PUSH1 0x0 DUP1 RETURNDATACOPY RETURNDATASIZE PUSH1 0x0 REVERT JUMPDEST POP POP POP POP PUSH1 0x40 MLOAD RETURNDATASIZE PUSH1 0x1F NOT PUSH1 0x1F DUP3 ADD AND DUP3 ADD DUP1 PUSH1 0x40 MSTORE POP DUP2 ADD SWAP1 PUSH2 0x13A8 SWAP2 SWAP1 PUSH2 0x2476 JUMP JUMPDEST PUSH1 0x1 PUSH1 0x1 PUSH1 0xA0 SHL SUB AND EQ PUSH2 0x13CE JUMPI PUSH1 0x40 MLOAD PUSH3 0x461BCD PUSH1 0xE5 SHL DUP2 MSTORE PUSH1 0x4 ADD PUSH2 0x56B SWAP1 PUSH2 0x2453 JUMP JUMPDEST PUSH1 0x40 MLOAD PUSH4 0xE985E9C5 PUSH1 0xE0 SHL DUP2 MSTORE CALLER PUSH1 0x4 DUP3 ADD MSTORE ADDRESS PUSH1 0x24 DUP3 ADD MSTORE PUSH1 0x1 PUSH1 0x1 PUSH1 0xA0 SHL SUB DUP9 AND SWAP1 PUSH4 0xE985E9C5 SWAP1 PUSH1 0x44 ADD PUSH1 0x20 PUSH1 0x40 MLOAD DUP1 DUP4 SUB DUP2 DUP7 GAS STATICCALL ISZERO DUP1 ISZERO PUSH2 0x1418 JUMPI RETURNDATASIZE PUSH1 0x0 DUP1 RETURNDATACOPY RETURNDATASIZE PUSH1 0x0 REVERT JUMPDEST POP POP POP POP PUSH1 0x40 MLOAD RETURNDATASIZE PUSH1 0x1F NOT PUSH1 0x1F DUP3 ADD AND DUP3 ADD DUP1 PUSH1 0x40 MSTORE POP DUP2 ADD SWAP1 PUSH2 0x143C SWAP2 SWAP1 PUSH2 0x2493 JUMP JUMPDEST DUP1 PUSH2 0x14B8 JUMPI POP PUSH1 0x40 MLOAD PUSH4 0x20604BF PUSH1 0xE2 SHL DUP2 MSTORE PUSH1 0x4 DUP2 ADD DUP8 SWAP1 MSTORE ADDRESS SWAP1 PUSH1 0x1 PUSH1 0x1 PUSH1 0xA0 SHL SUB DUP10 AND SWAP1 PUSH4 0x81812FC SWAP1 PUSH1 0x24 ADD PUSH1 0x20 PUSH1 0x40 MLOAD DUP1 DUP4 SUB DUP2 DUP7 GAS STATICCALL ISZERO DUP1 ISZERO PUSH2 0x1489 JUMPI RETURNDATASIZE PUSH1 0x0 DUP1 RETURNDATACOPY RETURNDATASIZE PUSH1 0x0 REVERT JUMPDEST POP POP POP POP PUSH1 0x40 MLOAD RETURNDATASIZE PUSH1 0x1F NOT PUSH1 0x1F DUP3 ADD AND DUP3 ADD DUP1 PUSH1 0x40 MSTORE POP DUP2 ADD SWAP1 PUSH2 0x14AD SWAP2 SWAP1 PUSH2 0x2476 JUMP JUMPDEST PUSH1 0x1 PUSH1 0x1 PUSH1 0xA0 SHL SUB AND EQ JUMPDEST PUSH2 0x14FA JUMPI PUSH1 0x40 MLOAD PUSH3 0x461BCD PUSH1 0xE5 SHL DUP2 MSTORE PUSH1 0x20 PUSH1 0x4 DUP3 ADD MSTORE PUSH1 0x13 PUSH1 0x24 DUP3 ADD MSTORE PUSH19 0x617070726F7665206D61726B6574706C616365 PUSH1 0x68 SHL PUSH1 0x44 DUP3 ADD MSTORE PUSH1 0x64 ADD PUSH2 0x56B JUMP JUMPDEST PUSH1 0x0 PUSH2 0x1506 DUP9 DUP9 PUSH2 0x2035 JUMP JUMPDEST SWAP1 POP PUSH1 0x40 MLOAD DUP1 PUSH1 0xE0 ADD PUSH1 0x40 MSTORE DUP1 CALLER PUSH1 0x1 PUSH1 0x1 PUSH1 0xA0 SHL SUB AND DUP2 MSTORE PUSH1 0x20 ADD DUP7 PUSH1 0x1 PUSH1 0x1 PUSH1 0xA0 SHL SUB AND DUP2 MSTORE PUSH1 0x20 ADD DUP8 DUP2 MSTORE PUSH1 0x20 ADD DUP6 ISZERO ISZERO DUP2 MSTORE PUSH1 0x20 ADD DUP5 PUSH2 0xFFFF AND PUSH1 0x0 EQ PUSH2 0x1551 JUMPI DUP5 PUSH2 0x1555 JUMP JUMPDEST PUSH2 0x1388 JUMPDEST PUSH2 0xFFFF AND DUP2 MSTORE PUSH1 0x20 ADD DUP4 PUSH2 0xFFFF AND PUSH1 0x0 EQ PUSH2 0x1570 JUMPI DUP4 PUSH2 0x1574 JUMP JUMPDEST PUSH2 0x4E20 JUMPDEST PUSH2 0xFFFF SWAP1 DUP2 AND DUP3 MSTORE PUSH1 0x1 PUSH1 0x20 SWAP3 DUP4 ADD DUP2 SWAP1 MSTORE PUSH1 0x0 DUP6 DUP2 MSTORE PUSH1 0x4 DUP5 MSTORE PUSH1 0x40 SWAP1 DUP2 SWAP1 KECCAK256 DUP6 MLOAD DUP2 SLOAD PUSH1 0x1 PUSH1 0x1 PUSH1 0xA0 SHL SUB NOT SWAP1 DUP2 AND PUSH1 0x1 PUSH1 0x1 PUSH1 0xA0 SHL SUB SWAP3 DUP4 AND OR DUP4 SSTORE DUP8 DUP8 ADD MLOAD SWAP5 DUP4 ADD DUP1 SLOAD SWAP1 SWAP2 AND SWAP5 DUP3 AND SWAP5 SWAP1 SWAP5 OR SWAP1 SWAP4 SSTORE DUP6 DUP3 ADD MLOAD PUSH1 0x2 DUP3 ADD SSTORE PUSH1 0x60 DUP1 DUP8 ADD MLOAD PUSH1 0x3 SWAP1 SWAP3 ADD DUP1 SLOAD PUSH1 0x80 DUP10 ADD MLOAD PUSH1 0xA0 DUP11 ADD MLOAD PUSH1 0xC0 SWAP1 SWAP11 ADD MLOAD PUSH3 0xFFFFFF NOT SWAP1 SWAP3 AND SWAP5 ISZERO ISZERO PUSH3 0xFFFF00 NOT AND SWAP5 SWAP1 SWAP5 OR PUSH2 0x100 SWAP5 DUP9 AND SWAP5 SWAP1 SWAP5 MUL SWAP4 SWAP1 SWAP4 OR PUSH6 0xFFFFFF000000 NOT AND PUSH4 0x1000000 SWAP9 SWAP1 SWAP7 AND SWAP8 SWAP1 SWAP8 MUL PUSH6 0xFF0000000000 NOT AND SWAP5 SWAP1 SWAP5 OR PUSH1 0x1 PUSH1 0x28 SHL SWAP2 ISZERO ISZERO SWAP2 SWAP1 SWAP2 MUL OR SWAP1 SWAP5 SSTORE DUP4 MLOAD DUP10 DUP3 AND DUP2 MSTORE SWAP3 DUP4 ADD DUP11 SWAP1 MSTORE DUP8 ISZERO ISZERO SWAP4 DUP4 ADD SWAP4 SWAP1 SWAP4 MSTORE CALLER SWAP3 DUP11 SWAP3 SWAP1 DUP13 AND SWAP2 PUSH32 0xA937126D0D037B0217224EEEE33594FCE51693C953A3418A7F44629BEACBF4EB SWAP2 ADD PUSH1 0x40 MLOAD DUP1 SWAP2 SUB SWAP1 LOG4 POP POP POP POP POP POP POP POP JUMP JUMPDEST PUSH2 0x16A1 PUSH2 0x1F86 JUMP JUMPDEST PUSH1 0x1 DUP3 PUSH1 0x1 PUSH1 0x1 PUSH1 0x40 SHL SUB AND LT ISZERO DUP1 ISZERO PUSH2 0x16CD JUMPI POP DUP2 PUSH1 0x1 PUSH1 0x1 PUSH1 0x40 SHL SUB AND DUP2 PUSH1 0x1 PUSH1 0x1 PUSH1 0x40 SHL SUB AND LT ISZERO JUMPDEST PUSH2 0x170A JUMPI PUSH1 0x40 MLOAD PUSH3 0x461BCD PUSH1 0xE5 SHL DUP2 MSTORE PUSH1 0x20 PUSH1 0x4 DUP3 ADD MSTORE PUSH1 0xE PUSH1 0x24 DUP3 ADD MSTORE PUSH14 0x696E76616C6964206C696D697473 PUSH1 0x90 SHL PUSH1 0x44 DUP3 ADD MSTORE PUSH1 0x64 ADD PUSH2 0x56B JUMP JUMPDEST PUSH1 0x2 DUP1 SLOAD PUSH8 0xFFFFFFFFFFFFFFFF PUSH1 0xA0 SHL NOT AND PUSH1 0x1 PUSH1 0xA0 SHL PUSH1 0x1 PUSH1 0x1 PUSH1 0x40 SHL SUB DUP6 DUP2 AND SWAP2 DUP3 MUL SWAP3 SWAP1 SWAP3 OR SWAP1 SWAP3 SSTORE PUSH1 0x3 DUP1 SLOAD PUSH8 0xFFFFFFFFFFFFFFFF NOT AND SWAP2 DUP5 AND SWAP2 DUP3 OR SWAP1 SSTORE PUSH1 0x40 DUP1 MLOAD SWAP3 DUP4 MSTORE PUSH1 0x20 DUP4 ADD SWAP2 SWAP1 SWAP2 MSTORE PUSH32 0x24D48E187A24F49E3551CE9D77A89E2A5959DA2A1932F86EBAB7B3168483AC1B SWAP2 ADD JUMPDEST PUSH1 0x40 MLOAD DUP1 SWAP2 SUB SWAP1 LOG1 POP POP JUMP JUMPDEST PUSH2 0x1794 PUSH2 0x200B JUMP JUMPDEST PUSH2 0x179C PUSH2 0x2112 JUMP JUMPDEST PUSH1 0x2 SLOAD PUSH1 0x1 PUSH1 0x1 PUSH1 0x40 SHL SUB PUSH1 0x1 PUSH1 0xA0 SHL SWAP1 SWAP2 DIV DUP2 AND SWAP1 DUP3 AND LT DUP1 ISZERO SWAP1 PUSH2 0x17D1 JUMPI POP PUSH1 0x3 SLOAD PUSH1 0x1 PUSH1 0x1 PUSH1 0x40 SHL SUB SWAP1 DUP2 AND SWAP1 DUP3 AND GT ISZERO JUMPDEST PUSH2 0x1812 JUMPI PUSH1 0x40 MLOAD PUSH3 0x461BCD PUSH1 0xE5 SHL DUP2 MSTORE PUSH1 0x20 PUSH1 0x4 DUP3 ADD MSTORE PUSH1 0x12 PUSH1 0x24 DUP3 ADD MSTORE PUSH18 0x686F757273206F7574206F662072616E6765 PUSH1 0x70 SHL PUSH1 0x44 DUP3 ADD MSTORE PUSH1 0x64 ADD PUSH2 0x56B JUMP JUMPDEST PUSH1 0x0 PUSH2 0x181E DUP5 DUP5 PUSH2 0x2035 JUMP JUMPDEST PUSH1 0x0 DUP2 DUP2 MSTORE PUSH1 0x4 PUSH1 0x20 SWAP1 DUP2 MSTORE PUSH1 0x40 SWAP2 DUP3 SWAP1 KECCAK256 DUP3 MLOAD PUSH1 0xE0 DUP2 ADD DUP5 MSTORE DUP2 SLOAD PUSH1 0x1 PUSH1 0x1 PUSH1 0xA0 SHL SUB SWAP1 DUP2 AND DUP3 MSTORE PUSH1 0x1 DUP4 ADD SLOAD AND SWAP3 DUP2 ADD SWAP3 SWAP1 SWAP3 MSTORE PUSH1 0x2 DUP2 ADD SLOAD SWAP3 DUP3 ADD SWAP3 SWAP1 SWAP3 MSTORE PUSH1 0x3 SWAP1 SWAP2 ADD SLOAD PUSH1 0xFF DUP1 DUP3 AND ISZERO ISZERO PUSH1 0x60 DUP5 ADD MSTORE PUSH2 0xFFFF PUSH2 0x100 DUP4 DIV DUP2 AND PUSH1 0x80 DUP6 ADD MSTORE PUSH4 0x1000000 DUP4 DIV AND PUSH1 0xA0 DUP5 ADD MSTORE PUSH1 0x1 PUSH1 0x28 SHL SWAP1 SWAP2 DIV AND ISZERO ISZERO PUSH1 0xC0 DUP3 ADD DUP2 SWAP1 MSTORE SWAP2 SWAP3 POP SWAP1 PUSH2 0x18C0 JUMPI PUSH1 0x40 MLOAD PUSH3 0x461BCD PUSH1 0xE5 SHL DUP2 MSTORE PUSH1 0x4 ADD PUSH2 0x56B SWAP1 PUSH2 0x242F JUMP JUMPDEST PUSH1 0x20 DUP2 ADD MLOAD PUSH1 0x1 PUSH1 0x1 PUSH1 0xA0 SHL SUB AND ISZERO PUSH2 0x190E JUMPI PUSH1 0x40 MLOAD PUSH3 0x461BCD PUSH1 0xE5 SHL DUP2 MSTORE PUSH1 0x20 PUSH1 0x4 DUP3 ADD MSTORE PUSH1 0x10 PUSH1 0x24 DUP3 ADD MSTORE PUSH16 0x1D5CD9481D1BDAD95B881B595D1A1BD9 PUSH1 0x82 SHL PUSH1 0x44 DUP3 ADD MSTORE PUSH1 0x64 ADD PUSH2 0x56B JUMP JUMPDEST PUSH1 0x0 DUP3 DUP2 MSTORE PUSH1 0x5 PUSH1 0x20 MSTORE PUSH1 0x40 SWAP1 KECCAK256 PUSH1 0x2 ADD SLOAD ISZERO PUSH2 0x195E JUMPI PUSH1 0x40 MLOAD PUSH3 0x461BCD PUSH1 0xE5 SHL DUP2 MSTORE PUSH1 0x20 PUSH1 0x4 DUP3 ADD MSTORE PUSH1 0xE PUSH1 0x24 DUP3 ADD MSTORE PUSH14 0x185B1C9958591E481C995B9D1959 PUSH1 0x92 SHL PUSH1 0x44 DUP3 ADD MSTORE PUSH1 0x64 ADD PUSH2 0x56B JUMP JUMPDEST PUSH1 0x0 DUP4 PUSH1 0x1 PUSH1 0x1 PUSH1 0x40 SHL SUB AND DUP3 PUSH1 0x40 ADD MLOAD PUSH2 0x1979 SWAP2 SWAP1 PUSH2 0x24C6 JUMP JUMPDEST SWAP1 POP PUSH1 0x0 PUSH2 0x1987 DUP4 DUP4 PUSH2 0x2136 JUMP JUMPDEST SWAP1 POP PUSH2 0x1993 DUP2 DUP4 PUSH2 0x24DD JUMP JUMPDEST CALLVALUE EQ PUSH2 0x19D1 JUMPI PUSH1 0x40 MLOAD PUSH3 0x461BCD PUSH1 0xE5 SHL DUP2 MSTORE PUSH1 0x20 PUSH1 0x4 DUP3 ADD MSTORE PUSH1 0xD PUSH1 0x24 DUP3 ADD MSTORE PUSH13 0x626164206D73672E76616C7565 PUSH1 0x98 SHL PUSH1 0x44 DUP3 ADD MSTORE PUSH1 0x64 ADD PUSH2 0x56B JUMP JUMPDEST PUSH1 0x1 SLOAD PUSH1 0x0 SWAP1 PUSH2 0x2710 SWAP1 PUSH2 0x19F0 SWAP1 PUSH1 0x1 PUSH1 0xA8 SHL SWAP1 DIV PUSH2 0xFFFF AND DUP6 PUSH2 0x24C6 JUMP JUMPDEST PUSH2 0x19FA SWAP2 SWAP1 PUSH2 0x24F0 JUMP JUMPDEST SWAP1 POP PUSH1 0x0 PUSH2 0x1A08 DUP3 DUP6 PUSH2 0x2512 JUMP JUMPDEST SWAP1 POP PUSH1 0x0 PUSH2 0x1A18 DUP9 PUSH2 0xE10 PUSH2 0x2525 JUMP JUMPDEST PUSH2 0x1A2B SWAP1 PUSH1 0x1 PUSH1 0x1 PUSH1 0x40 SHL SUB AND TIMESTAMP PUSH2 0x24DD JUMP JUMPDEST PUSH1 0x40 MLOAD PUSH4 0x70182B2F PUSH1 0xE1 SHL DUP2 MSTORE PUSH1 0x4 DUP2 ADD DUP12 SWAP1 MSTORE CALLER PUSH1 0x24 DUP3 ADD MSTORE PUSH1 0x1 PUSH1 0x1 PUSH1 0x40 SHL SUB DUP3 AND PUSH1 0x44 DUP3 ADD MSTORE SWAP1 SWAP2 POP PUSH1 0x1 PUSH1 0x1 PUSH1 0xA0 SHL SUB DUP12 AND SWAP1 PUSH4 0xE030565E SWAP1 PUSH1 0x64 ADD PUSH1 0x0 PUSH1 0x40 MLOAD DUP1 DUP4 SUB DUP2 PUSH1 0x0 DUP8 DUP1 EXTCODESIZE ISZERO DUP1 ISZERO PUSH2 0x1A85 JUMPI PUSH1 0x0 DUP1 REVERT JUMPDEST POP GAS CALL ISZERO DUP1 ISZERO PUSH2 0x1A99 JUMPI RETURNDATASIZE PUSH1 0x0 DUP1 RETURNDATACOPY RETURNDATASIZE PUSH1 0x0 REVERT JUMPDEST POP POP PUSH1 0x2 SLOAD PUSH1 0x40 MLOAD PUSH1 0x0 SWAP4 POP PUSH1 0x1 PUSH1 0x1 PUSH1 0xA0 SHL SUB SWAP1 SWAP2 AND SWAP2 POP DUP6 SWAP1 DUP4 DUP2 DUP2 DUP2 DUP6 DUP8 GAS CALL SWAP3 POP POP POP RETURNDATASIZE DUP1 PUSH1 0x0 DUP2 EQ PUSH2 0x1AEC JUMPI PUSH1 0x40 MLOAD SWAP2 POP PUSH1 0x1F NOT PUSH1 0x3F RETURNDATASIZE ADD AND DUP3 ADD PUSH1 0x40 MSTORE RETURNDATASIZE DUP3 MSTORE RETURNDATASIZE PUSH1 0x0 PUSH1 0x20 DUP5 ADD RETURNDATACOPY PUSH2 0x1AF1 JUMP JUMPDEST PUSH1 0x60 SWAP2 POP JUMPDEST POP POP SWAP1 POP DUP1 PUSH2 0x1B2D JUMPI PUSH1 0x40 MLOAD PUSH3 0x461BCD PUSH1 0xE5 SHL DUP2 MSTORE PUSH1 0x20 PUSH1 0x4 DUP3 ADD MSTORE PUSH1 0x8 PUSH1 0x24 DUP3 ADD MSTORE PUSH8 0x3332B2903C3332B9 PUSH1 0xC1 SHL PUSH1 0x44 DUP3 ADD MSTORE PUSH1 0x64 ADD PUSH2 0x56B JUMP JUMPDEST DUP7 MLOAD PUSH1 0x40 MLOAD PUSH1 0x0 SWAP2 PUSH1 0x1 PUSH1 0x1 PUSH1 0xA0 SHL SUB AND SWAP1 DUP6 SWAP1 DUP4 DUP2 DUP2 DUP2 DUP6 DUP8 GAS CALL SWAP3 POP POP POP RETURNDATASIZE DUP1 PUSH1 0x0 DUP2 EQ PUSH2 0x1B79 JUMPI PUSH1 0x40 MLOAD SWAP2 POP PUSH1 0x1F NOT PUSH1 0x3F RETURNDATASIZE ADD AND DUP3 ADD PUSH1 0x40 MSTORE RETURNDATASIZE DUP3 MSTORE RETURNDATASIZE PUSH1 0x0 PUSH1 0x20 DUP5 ADD RETURNDATACOPY PUSH2 0x1B7E JUMP JUMPDEST PUSH1 0x60 SWAP2 POP JUMPDEST POP POP SWAP1 POP DUP1 PUSH2 0x1BBC JUMPI PUSH1 0x40 MLOAD PUSH3 0x461BCD PUSH1 0xE5 SHL DUP2 MSTORE PUSH1 0x20 PUSH1 0x4 DUP3 ADD MSTORE PUSH1 0xA PUSH1 0x24 DUP3 ADD MSTORE PUSH10 0x37BBB732B9103C3332B9 PUSH1 0xB1 SHL PUSH1 0x44 DUP3 ADD MSTORE PUSH1 0x64 ADD PUSH2 0x56B JUMP JUMPDEST DUP6 ISZERO PUSH2 0x1C23 JUMPI PUSH1 0x40 DUP1 MLOAD PUSH1 0x60 DUP2 ADD DUP3 MSTORE CALLER DUP2 MSTORE PUSH1 0x0 PUSH1 0x20 DUP1 DUP4 ADD DUP3 DUP2 MSTORE DUP4 DUP6 ADD DUP12 DUP2 MSTORE DUP15 DUP5 MSTORE PUSH1 0x5 SWAP1 SWAP3 MSTORE SWAP4 SWAP1 SWAP2 KECCAK256 SWAP2 MLOAD DUP3 SLOAD PUSH1 0x1 PUSH1 0x1 PUSH1 0xA0 SHL SUB NOT SWAP1 DUP2 AND PUSH1 0x1 PUSH1 0x1 PUSH1 0xA0 SHL SUB SWAP3 DUP4 AND OR DUP5 SSTORE SWAP4 MLOAD PUSH1 0x1 DUP5 ADD DUP1 SLOAD SWAP1 SWAP6 AND SWAP2 AND OR SWAP1 SWAP3 SSTORE SWAP1 MLOAD PUSH1 0x2 SWAP1 SWAP2 ADD SSTORE JUMPDEST PUSH1 0x40 DUP1 MLOAD PUSH1 0x1 PUSH1 0x1 PUSH1 0x40 SHL SUB DUP13 AND DUP2 MSTORE PUSH1 0x20 DUP2 ADD DUP10 SWAP1 MSTORE PUSH1 0x0 SWAP2 DUP2 ADD SWAP2 SWAP1 SWAP2 MSTORE PUSH1 0x60 DUP2 ADD DUP8 SWAP1 MSTORE CALLER SWAP1 DUP13 SWAP1 PUSH1 0x1 PUSH1 0x1 PUSH1 0xA0 SHL SUB DUP16 AND SWAP1 PUSH32 0x593824C2309039BABAF0427EB4570CB486A3ED1E2D7B09FCC8DF033CEA5C4228 SWAP1 PUSH1 0x80 ADD PUSH1 0x40 MLOAD DUP1 SWAP2 SUB SWAP1 LOG4 POP POP POP POP POP POP POP POP POP PUSH2 0x1C99 PUSH1 0x1 PUSH1 0x0 SSTORE JUMP JUMPDEST POP POP POP JUMP JUMPDEST PUSH2 0x1CA6 PUSH2 0x1F86 JUMP JUMPDEST PUSH2 0x7D0 DUP3 PUSH2 0xFFFF AND GT ISZERO PUSH2 0x1CEB JUMPI PUSH1 0x40 MLOAD PUSH3 0x461BCD PUSH1 0xE5 SHL DUP2 MSTORE PUSH1 0x20 PUSH1 0x4 DUP3 ADD MSTORE PUSH1 0xC PUSH1 0x24 DUP3 ADD MSTORE PUSH12 0xCCCACA40E8DEDE40D0D2CED PUSH1 0xA3 SHL PUSH1 0x44 DUP3 ADD MSTORE PUSH1 0x64 ADD PUSH2 0x56B JUMP JUMPDEST PUSH1 0x1 PUSH1 0x1 PUSH1 0xA0 SHL SUB DUP2 AND PUSH2 0x1D32 JUMPI PUSH1 0x40 MLOAD PUSH3 0x461BCD PUSH1 0xE5 SHL DUP2 MSTORE PUSH1 0x20 PUSH1 0x4 DUP3 ADD MSTORE PUSH1 0xE PUSH1 0x24 DUP3 ADD MSTORE PUSH14 0x1E995C9BC81C9958DA5C1A595B9D PUSH1 0x92 SHL PUSH1 0x44 DUP3 ADD MSTORE PUSH1 0x64 ADD PUSH2 0x56B JUMP JUMPDEST PUSH1 0x1 DUP1 SLOAD PUSH2 0xFFFF PUSH1 0xA8 SHL NOT AND PUSH1 0x1 PUSH1 0xA8 SHL PUSH2 0xFFFF DUP6 AND SWAP1 DUP2 MUL SWAP2 SWAP1 SWAP2 OR SWAP1 SWAP2 SSTORE PUSH1 0x2 DUP1 SLOAD PUSH1 0x1 PUSH1 0x1 PUSH1 0xA0 SHL SUB NOT AND PUSH1 0x1 PUSH1 0x1 PUSH1 0xA0 SHL SUB DUP5 AND SWAP1 DUP2 OR SWAP1 SWAP2 SSTORE PUSH1 0x40 DUP1 MLOAD SWAP3 DUP4 MSTORE PUSH1 0x20 DUP4 ADD SWAP2 SWAP1 SWAP2 MSTORE PUSH32 0x553BD03BB9146C7A9C7AD0A260AED36E8D47650815DF076DFB60F9D47E6CF727 SWAP2 ADD PUSH2 0x1780 JUMP JUMPDEST PUSH1 0x0 PUSH2 0x1DB3 DUP4 DUP4 PUSH2 0x2035 JUMP JUMPDEST PUSH1 0x0 DUP2 DUP2 MSTORE PUSH1 0x4 PUSH1 0x20 SWAP1 DUP2 MSTORE PUSH1 0x40 SWAP2 DUP3 SWAP1 KECCAK256 DUP3 MLOAD PUSH1 0xE0 DUP2 ADD DUP5 MSTORE DUP2 SLOAD PUSH1 0x1 PUSH1 0x1 PUSH1 0xA0 SHL SUB SWAP1 DUP2 AND DUP3 MSTORE PUSH1 0x1 DUP4 ADD SLOAD AND SWAP3 DUP2 ADD SWAP3 SWAP1 SWAP3 MSTORE PUSH1 0x2 DUP2 ADD SLOAD SWAP3 DUP3 ADD SWAP3 SWAP1 SWAP3 MSTORE PUSH1 0x3 SWAP1 SWAP2 ADD SLOAD PUSH1 0xFF DUP1 DUP3 AND ISZERO ISZERO PUSH1 0x60 DUP5 ADD MSTORE PUSH2 0xFFFF PUSH2 0x100 DUP4 DIV DUP2 AND PUSH1 0x80 DUP6 ADD MSTORE PUSH4 0x1000000 DUP4 DIV AND PUSH1 0xA0 DUP5 ADD MSTORE PUSH1 0x1 PUSH1 0x28 SHL SWAP1 SWAP2 DIV AND ISZERO ISZERO PUSH1 0xC0 DUP3 ADD DUP2 SWAP1 MSTORE SWAP2 SWAP3 POP SWAP1 PUSH2 0x1E55 JUMPI PUSH1 0x40 MLOAD PUSH3 0x461BCD PUSH1 0xE5 SHL DUP2 MSTORE PUSH1 0x4 ADD PUSH2 0x56B SWAP1 PUSH2 0x242F JUMP JUMPDEST DUP1 MLOAD PUSH1 0x1 PUSH1 0x1 PUSH1 0xA0 SHL SUB AND CALLER EQ PUSH2 0x1E7E JUMPI PUSH1 0x40 MLOAD PUSH3 0x461BCD PUSH1 0xE5 SHL DUP2 MSTORE PUSH1 0x4 ADD PUSH2 0x56B SWAP1 PUSH2 0x2453 JUMP JUMPDEST PUSH1 0x0 DUP3 DUP2 MSTORE PUSH1 0x5 PUSH1 0x20 MSTORE PUSH1 0x40 SWAP1 KECCAK256 PUSH1 0x2 ADD SLOAD ISZERO PUSH2 0x1ECE JUMPI PUSH1 0x40 MLOAD PUSH3 0x461BCD PUSH1 0xE5 SHL DUP2 MSTORE PUSH1 0x20 PUSH1 0x4 DUP3 ADD MSTORE PUSH1 0xE PUSH1 0x24 DUP3 ADD MSTORE PUSH14 0x1858DD1A5D994819195C1BDCDA5D PUSH1 0x92 SHL PUSH1 0x44 DUP3 ADD MSTORE PUSH1 0x64 ADD PUSH2 0x56B JUMP JUMPDEST PUSH1 0x0 DUP3 DUP2 MSTORE PUSH1 0x4 PUSH1 0x20 MSTORE PUSH1 0x40 DUP1 DUP3 KECCAK256 DUP1 SLOAD PUSH1 0x1 PUSH1 0x1 PUSH1 0xA0 SHL SUB NOT SWAP1 DUP2 AND DUP3 SSTORE PUSH1 0x1 DUP3 ADD DUP1 SLOAD SWAP1 SWAP2 AND SWAP1 SSTORE PUSH1 0x2 DUP2 ADD DUP4 SWAP1 SSTORE PUSH1 0x3 ADD DUP1 SLOAD PUSH6 0xFFFFFFFFFFFF NOT AND SWAP1 SSTORE MLOAD CALLER SWAP2 DUP6 SWAP2 PUSH1 0x1 PUSH1 0x1 PUSH1 0xA0 SHL SUB DUP9 AND SWAP2 PUSH32 0x9DB7BA4A2920E0C8066731BB48BCA5EE2A652267B7E73D0502962C29F1E41EAD SWAP2 LOG4 POP POP POP POP JUMP JUMPDEST PUSH2 0x1F50 PUSH2 0x1F86 JUMP JUMPDEST PUSH1 0x1 PUSH1 0x1 PUSH1 0xA0 SHL SUB DUP2 AND PUSH2 0x1F7A JUMPI PUSH1 0x40 MLOAD PUSH4 0x1E4FBDF7 PUSH1 0xE0 SHL DUP2 MSTORE PUSH1 0x0 PUSH1 0x4 DUP3 ADD MSTORE PUSH1 0x24 ADD PUSH2 0x56B JUMP JUMPDEST PUSH2 0x1F83 DUP2 PUSH2 0x207D JUMP JUMPDEST POP JUMP JUMPDEST PUSH1 0x1 SLOAD PUSH1 0x1 PUSH1 0x1 PUSH1 0xA0 SHL SUB PUSH2 0x100 SWAP1 SWAP2 DIV AND CALLER EQ PUSH2 0x4B3 JUMPI PUSH1 0x40 MLOAD PUSH4 0x118CDAA7 PUSH1 0xE0 SHL DUP2 MSTORE CALLER PUSH1 0x4 DUP3 ADD MSTORE PUSH1 0x24 ADD PUSH2 0x56B JUMP JUMPDEST PUSH2 0x1FC1 PUSH2 0x21AB JUMP JUMPDEST PUSH1 0x1 DUP1 SLOAD PUSH1 0xFF NOT AND SWAP1 SSTORE PUSH32 0x5DB9EE0A495BF2E6FF9C91A7834C1BA4FDD244A5E8AA4E537BD38AEAE4B073AA CALLER JUMPDEST PUSH1 0x40 MLOAD PUSH1 0x1 PUSH1 0x1 PUSH1 0xA0 SHL SUB SWAP1 SWAP2 AND DUP2 MSTORE PUSH1 0x20 ADD PUSH1 0x40 MLOAD DUP1 SWAP2 SUB SWAP1 LOG1 JUMP JUMPDEST PUSH1 0x2 PUSH1 0x0 SLOAD SUB PUSH2 0x202E JUMPI PUSH1 0x40 MLOAD PUSH4 0x3EE5AEB5 PUSH1 0xE0 SHL DUP2 MSTORE PUSH1 0x4 ADD PUSH1 0x40 MLOAD DUP1 SWAP2 SUB SWAP1 REVERT JUMPDEST PUSH1 0x2 PUSH1 0x0 SSTORE JUMP JUMPDEST PUSH1 0x40 MLOAD PUSH12 0xFFFFFFFFFFFFFFFFFFFFFFFF NOT PUSH1 0x60 DUP5 SWAP1 SHL AND PUSH1 0x20 DUP3 ADD MSTORE PUSH1 0x34 DUP2 ADD DUP3 SWAP1 MSTORE PUSH1 0x0 SWAP1 PUSH1 0x54 ADD PUSH1 0x40 MLOAD PUSH1 0x20 DUP2 DUP4 SUB SUB DUP2 MSTORE SWAP1 PUSH1 0x40 MSTORE DUP1 MLOAD SWAP1 PUSH1 0x20 ADD KECCAK256 SWAP1 POP JUMPDEST SWAP3 SWAP2 POP POP JUMP JUMPDEST PUSH1 0x1 DUP1 SLOAD PUSH1 0x1 PUSH1 0x1 PUSH1 0xA0 SHL SUB DUP4 DUP2 AND PUSH2 0x100 DUP2 DUP2 MUL PUSH2 0x100 PUSH1 0x1 PUSH1 0xA8 SHL SUB NOT DUP6 AND OR SWAP1 SWAP5 SSTORE PUSH1 0x40 MLOAD SWAP4 SWAP1 SWAP3 DIV AND SWAP2 DUP3 SWAP1 PUSH32 0x8BE0079C531659141344CD1FD0A4F28419497F9722A3DAAFE3B4186F6B6457E0 SWAP1 PUSH1 0x0 SWAP1 LOG3 POP POP JUMP JUMPDEST PUSH2 0x20DF PUSH2 0x2112 JUMP JUMPDEST PUSH1 0x1 DUP1 SLOAD PUSH1 0xFF NOT AND DUP2 OR SWAP1 SSTORE PUSH32 0x62E78CEA01BEE320CD4E420270B5EA74000D11B0C9F74754EBDBFC544B05A258 CALLER PUSH2 0x1FEE JUMP JUMPDEST PUSH1 0x1 SLOAD PUSH1 0xFF AND ISZERO PUSH2 0x4B3 JUMPI PUSH1 0x40 MLOAD PUSH4 0xD93C0665 PUSH1 0xE0 SHL DUP2 MSTORE PUSH1 0x4 ADD PUSH1 0x40 MLOAD DUP1 SWAP2 SUB SWAP1 REVERT JUMPDEST PUSH1 0x0 DUP3 PUSH1 0x60 ADD MLOAD PUSH2 0x2149 JUMPI POP PUSH1 0x0 PUSH2 0x2077 JUMP JUMPDEST PUSH1 0x0 PUSH2 0x2710 DUP5 PUSH1 0x80 ADD MLOAD PUSH2 0xFFFF AND DUP5 PUSH2 0x2162 SWAP2 SWAP1 PUSH2 0x24C6 JUMP JUMPDEST PUSH2 0x216C SWAP2 SWAP1 PUSH2 0x24F0 JUMP JUMPDEST SWAP1 POP PUSH1 0x0 PUSH2 0x2710 DUP6 PUSH1 0xA0 ADD MLOAD PUSH2 0xFFFF AND DUP6 PUSH2 0x2187 SWAP2 SWAP1 PUSH2 0x24C6 JUMP JUMPDEST PUSH2 0x2191 SWAP2 SWAP1 PUSH2 0x24F0 JUMP JUMPDEST SWAP1 POP DUP1 DUP3 LT PUSH2 0x21A0 JUMPI DUP1 PUSH2 0x21A2 JUMP JUMPDEST DUP2 JUMPDEST SWAP6 SWAP5 POP POP POP POP POP JUMP JUMPDEST PUSH1 0x1 SLOAD PUSH1 0xFF AND PUSH2 0x4B3 JUMPI PUSH1 0x40 MLOAD PUSH4 0x8DFC202B PUSH1 0xE0 SHL DUP2 MSTORE PUSH1 0x4 ADD PUSH1 0x40 MLOAD DUP1 SWAP2 SUB SWAP1 REVERT JUMPDEST PUSH1 0x0 PUSH1 0x20 DUP3 DUP5 SUB SLT ISZERO PUSH2 0x21E0 JUMPI PUSH1 0x0 DUP1 REVERT JUMPDEST POP CALLDATALOAD SWAP2 SWAP1 POP JUMP JUMPDEST PUSH1 0x1 PUSH1 0x1 PUSH1 0xA0 SHL SUB SWAP4 DUP5 AND DUP2 MSTORE SWAP2 SWAP1 SWAP3 AND PUSH1 0x20 DUP3 ADD MSTORE PUSH1 0x40 DUP2 ADD SWAP2 SWAP1 SWAP2 MSTORE PUSH1 0x60 ADD SWAP1 JUMP JUMPDEST PUSH1 0x1 PUSH1 0x1 PUSH1 0xA0 SHL SUB DUP2 AND DUP2 EQ PUSH2 0x1F83 JUMPI PUSH1 0x0 DUP1 REVERT JUMPDEST PUSH1 0x0 DUP1 PUSH1 0x40 DUP4 DUP6 SUB SLT ISZERO PUSH2 0x2233 JUMPI PUSH1 0x0 DUP1 REVERT JUMPDEST DUP3 CALLDATALOAD PUSH2 0x223E DUP2 PUSH2 0x220B JUMP JUMPDEST SWAP5 PUSH1 0x20 SWAP4 SWAP1 SWAP4 ADD CALLDATALOAD SWAP4 POP POP POP JUMP JUMPDEST DUP1 CALLDATALOAD PUSH1 0x1 PUSH1 0x1 PUSH1 0x40 SHL SUB DUP2 AND DUP2 EQ PUSH2 0x2263 JUMPI PUSH1 0x0 DUP1 REVERT JUMPDEST SWAP2 SWAP1 POP JUMP JUMPDEST PUSH1 0x0 DUP1 PUSH1 0x0 DUP1 PUSH1 0x0 PUSH1 0xA0 DUP7 DUP9 SUB SLT ISZERO PUSH2 0x2280 JUMPI PUSH1 0x0 DUP1 REVERT JUMPDEST DUP6 CALLDATALOAD PUSH2 0x228B DUP2 PUSH2 0x220B JUMP JUMPDEST SWAP5 POP PUSH1 0x20 DUP7 ADD CALLDATALOAD SWAP4 POP PUSH2 0x22A0 PUSH1 0x40 DUP8 ADD PUSH2 0x224C JUMP JUMPDEST SWAP3 POP PUSH1 0x60 DUP7 ADD CALLDATALOAD SWAP2 POP PUSH1 0x80 DUP7 ADD CALLDATALOAD PUSH2 0x22B7 DUP2 PUSH2 0x220B JUMP JUMPDEST DUP1 SWAP2 POP POP SWAP3 SWAP6 POP SWAP3 SWAP6 SWAP1 SWAP4 POP JUMP JUMPDEST DUP1 ISZERO ISZERO DUP2 EQ PUSH2 0x1F83 JUMPI PUSH1 0x0 DUP1 REVERT JUMPDEST DUP1 CALLDATALOAD PUSH2 0xFFFF DUP2 AND DUP2 EQ PUSH2 0x2263 JUMPI PUSH1 0x0 DUP1 REVERT JUMPDEST PUSH1 0x0 DUP1 PUSH1 0x0 DUP1 PUSH1 0x0 DUP1 PUSH1 0x0 PUSH1 0xE0 DUP9 DUP11 SUB SLT ISZERO PUSH2 0x2300 JUMPI PUSH1 0x0 DUP1 REVERT JUMPDEST DUP8 CALLDATALOAD PUSH2 0x230B DUP2 PUSH2 0x220B JUMP JUMPDEST SWAP7 POP PUSH1 0x20 DUP9 ADD CALLDATALOAD SWAP6 POP PUSH1 0x40 DUP9 ADD CALLDATALOAD SWAP5 POP PUSH1 0x60 DUP9 ADD CALLDATALOAD PUSH2 0x2329 DUP2 PUSH2 0x220B JUMP JUMPDEST SWAP4 POP PUSH1 0x80 DUP9 ADD CALLDATALOAD PUSH2 0x2339 DUP2 PUSH2 0x22C5 JUMP JUMPDEST SWAP3 POP PUSH2 0x2347 PUSH1 0xA0 DUP10 ADD PUSH2 0x22D3 JUMP JUMPDEST SWAP2 POP PUSH2 0x2355 PUSH1 0xC0 DUP10 ADD PUSH2 0x22D3 JUMP JUMPDEST SWAP1 POP SWAP3 SWAP6 SWAP9 SWAP2 SWAP5 SWAP8 POP SWAP3 SWAP6 POP JUMP JUMPDEST PUSH1 0x0 DUP1 PUSH1 0x40 DUP4 DUP6 SUB SLT ISZERO PUSH2 0x2376 JUMPI PUSH1 0x0 DUP1 REVERT JUMPDEST PUSH2 0x237F DUP4 PUSH2 0x224C JUMP JUMPDEST SWAP2 POP PUSH2 0x238D PUSH1 0x20 DUP5 ADD PUSH2 0x224C JUMP JUMPDEST SWAP1 POP SWAP3 POP SWAP3 SWAP1 POP JUMP JUMPDEST PUSH1 0x0 DUP1 PUSH1 0x0 PUSH1 0x60 DUP5 DUP7 SUB SLT ISZERO PUSH2 0x23AB JUMPI PUSH1 0x0 DUP1 REVERT JUMPDEST DUP4 CALLDATALOAD PUSH2 0x23B6 DUP2 PUSH2 0x220B JUMP JUMPDEST SWAP3 POP PUSH1 0x20 DUP5 ADD CALLDATALOAD SWAP2 POP PUSH2 0x23CB PUSH1 0x40 DUP6 ADD PUSH2 0x224C JUMP JUMPDEST SWAP1 POP SWAP3 POP SWAP3 POP SWAP3 JUMP JUMPDEST PUSH1 0x0 DUP1 PUSH1 0x40 DUP4 DUP6 SUB SLT ISZERO PUSH2 0x23E7 JUMPI PUSH1 0x0 DUP1 REVERT JUMPDEST PUSH2 0x23F0 DUP4 PUSH2 0x22D3 JUMP JUMPDEST SWAP2 POP PUSH1 0x20 DUP4 ADD CALLDATALOAD PUSH2 0x2400 DUP2 PUSH2 0x220B JUMP JUMPDEST DUP1 SWAP2 POP POP SWAP3 POP SWAP3 SWAP1 POP JUMP JUMPDEST PUSH1 0x0 PUSH1 0x20 DUP3 DUP5 SUB SLT ISZERO PUSH2 0x241D JUMPI PUSH1 0x0 DUP1 REVERT JUMPDEST DUP2 CALLDATALOAD PUSH2 0x2428 DUP2 PUSH2 0x220B JUMP JUMPDEST SWAP4 SWAP3 POP POP POP JUMP JUMPDEST PUSH1 0x20 DUP1 DUP3 MSTORE PUSH1 0xA SWAP1 DUP3 ADD MSTORE PUSH10 0x1B9BDD081B1A5CDD1959 PUSH1 0xB2 SHL PUSH1 0x40 DUP3 ADD MSTORE PUSH1 0x60 ADD SWAP1 JUMP JUMPDEST PUSH1 0x20 DUP1 DUP3 MSTORE PUSH1 0x9 SWAP1 DUP3 ADD MSTORE PUSH9 0x3737BA1037BBB732B9 PUSH1 0xB9 SHL PUSH1 0x40 DUP3 ADD MSTORE PUSH1 0x60 ADD SWAP1 JUMP JUMPDEST PUSH1 0x0 PUSH1 0x20 DUP3 DUP5 SUB SLT ISZERO PUSH2 0x2488 JUMPI PUSH1 0x0 DUP1 REVERT JUMPDEST DUP2 MLOAD PUSH2 0x2428 DUP2 PUSH2 0x220B JUMP JUMPDEST PUSH1 0x0 PUSH1 0x20 DUP3 DUP5 SUB SLT ISZERO PUSH2 0x24A5 JUMPI PUSH1 0x0 DUP1 REVERT JUMPDEST DUP2 MLOAD PUSH2 0x2428 DUP2 PUSH2 0x22C5 JUMP JUMPDEST PUSH4 0x4E487B71 PUSH1 0xE0 SHL PUSH1 0x0 MSTORE PUSH1 0x11 PUSH1 0x4 MSTORE PUSH1 0x24 PUSH1 0x0 REVERT JUMPDEST DUP1 DUP3 MUL DUP2 ISZERO DUP3 DUP3 DIV DUP5 EQ OR PUSH2 0x2077 JUMPI PUSH2 0x2077 PUSH2 0x24B0 JUMP JUMPDEST DUP1 DUP3 ADD DUP1 DUP3 GT ISZERO PUSH2 0x2077 JUMPI PUSH2 0x2077 PUSH2 0x24B0 JUMP JUMPDEST PUSH1 0x0 DUP3 PUSH2 0x250D JUMPI PUSH4 0x4E487B71 PUSH1 0xE0 SHL PUSH1 0x0 MSTORE PUSH1 0x12 PUSH1 0x4 MSTORE PUSH1 0x24 PUSH1 0x0 REVERT JUMPDEST POP DIV SWAP1 JUMP JUMPDEST DUP2 DUP2 SUB DUP2 DUP2 GT ISZERO PUSH2 0x2077 JUMPI PUSH2 0x2077 PUSH2 0x24B0 JUMP JUMPDEST PUSH1 0x1 PUSH1 0x1 PUSH1 0x40 SHL SUB DUP2 DUP2 AND DUP4 DUP3 AND MUL DUP1 DUP3 AND SWAP2 SWAP1 DUP3 DUP2 EQ PUSH2 0x2548 JUMPI PUSH2 0x2548 PUSH2 0x24B0 JUMP JUMPDEST POP POP SWAP3 SWAP2 POP POP JUMP INVALID LOG2 PUSH5 0x6970667358 0x22 SLT KECCAK256 0x25 0xA5 DUP8 0xE SWAP5 0xC SWAP15 BLOBBASEFEE ADDMOD ADD OR 0xD2 PUSH20 0xE0E4ADFDD622BF1DA8C8541B71C057D518BE8B64 PUSH20 0x6F6C634300081800330000000000000000000000 "},"methodIdentifiers":{"claimDeposit(address,uint256)":"a1bfe1ba","delist(address,uint256)":"f074258e","deposits(bytes32)":"3d4dff7b","feeRecipient()":"46904840","listForRent(address,uint256,uint256,address,bool,uint16,uint16)":"c06b3846","listings(bytes32)":"c18b8db4","maxHours()":"8cc5e533","minHours()":"bf26aa77","owner()":"8da5cb5b","pause()":"8456cb59","paused()":"5c975abb","platformFeeBps()":"22dcd13e","refundDeposit(address,uint256)":"5215d054","renounceOwnership()":"715018a6","rentWithNative(address,uint256,uint64)":"dc0a4168","rentWithToken(address,uint256,uint64,uint256,address)":"a735fe94","setFeeParams(uint16,address)":"e0120cf8","setHourLimits(uint64,uint64)":"d8e1313b","transferOwnership(address)":"f2fde38b","unpause()":"3f4ba83a"}}}}}