{
  "_format": "hh-sol-artifact-1",
  "contractName": "RentalNFT",
  "sourceName": "contracts/RentalNFT.sol",
  "abi": [
    {
      "inputs": [
        {
          "internalType": "string",
          "name": "name_",
          "type": "string"
        },
        {
          "internalType": "string",
          "name": "symbol_",
          "type": "string"
        },
        {
          "internalType": "address",
          "name": "initialOwner",
          "type": "address"
        }
      ],
      "stateMutability": "nonpayable",
      "type": "constructor"
    },
    {
      "inputs": [
        {
          "internalType": "address",
          "name": "sender",
          "type": "address"
        },
        {
          "internalType": "uint256",
          "name": "tokenId",
          "type": "uint256"
        },
        {
          "internalType": "address",
          "name": "owner",
          "type": "address"
        }
      ],
      "name": "ERC721IncorrectOwner",
      "type": "error"
    },
    {
      "inputs": [
        {
          "internalType": "address",
          "name": "operator",
          "type": "address"
        },
        {
          "internalType": "uint256",
          "name": "tokenId",
          "type": "uint256"
        }
      ],
      "name": "ERC721InsufficientApproval",
      "type": "error"
    },
    {
      "inputs": [
        {
          "internalType": "address",
          "name": "approver",
          "type": "address"
        }
      ],
      "name": "ERC721InvalidApprover",
      "type": "error"
    },
    {
      "inputs": [
        {
          "internalType": "address",
          "name": "operator",
          "type": "address"
        }
      ],
      "name": "ERC721InvalidOperator",
      "type": "error"
    },
    {
      "inputs": [
        {
          "internalType": "address",
          "name": "owner",
          "type": "address"
        }
      ],
      "name": "ERC721InvalidOwner",
      "type": "error"
    },
    {
      "inputs": [
        {
          "internalType": "address",
          "name": "receiver",
          "type": "address"
        }
      ],
      "name": "ERC721InvalidReceiver",
      "type": "error"
    },
    {
      "inputs": [
        {
          "internalType": "address",
          "name": "sender",
          "type": "address"
        }
      ],
      "name": "ERC721InvalidSender",
      "type": "error"
    },
    {
      "inputs": [
        {
          "internalType": "uint256",
          "name": "tokenId",
          "type": "uint256"
        }
      ],
      "name": "ERC721NonexistentToken",
      "type": "error"
    },
    {
      "inputs": [
        {
          "internalType": "address",
          "name": "owner",
          "type": "address"
        }
      ],
      "name": "OwnableInvalidOwner",
      "type": "error"
    },
    {
      "inputs": [
        {
          "internalType": "address",
          "name": "account",
          "type": "address"
        }
      ],
      "name": "OwnableUnauthorizedAccount",
      "type": "error"
    },
    {
      "anonymous": false,
      "inputs": [
        {
          "indexed": true,
          "internalType": "address",
          "name": "owner",
          "type": "address"
        },
        {
          "indexed": true,
          "internalType": "address",
          "name": "approved",
          "type": "address"
        },
        {
          "indexed": true,
          "internalType": "uint256",
          "name": "tokenId",
          "type": "uint256"
        }
      ],
      "name": "Approval",
      "type": "event"
    },
    {
      "anonymous": false,
      "inputs": [
        {
          "indexed": true,
          "internalType": "address",
          "name": "owner",
          "type": "address"
        },
        {
          "indexed": true,
          "internalType": "address",
          "name": "operator",
          "type": "address"
        },
        {
          "indexed": false,
          "internalType": "bool",
          "name": "approved",
          "type": "bool"
        }
      ],
      "name": "ApprovalForAll",
      "type": "event"
    },
    {
      "anonymous": false,
      "inputs": [
        {
          "indexed": true,
          "internalType": "address",
          "name": "previousOwner",
          "type": "address"
        },
        {
          "indexed": true,
          "internalType": "address",
          "name": "newOwner",
          "type": "address"
        }
      ],
      "name": "OwnershipTransferred",
      "type": "event"
    },
    {
      "anonymous": false,
      "inputs": [
        {
          "indexed": true,
          "internalType": "address",
          "name": "from",
          "type": "address"
        },
        {
          "indexed": true,
          "internalType": "address",
          "name": "to",
          "type": "address"
        },
        {
          "indexed": true,
          "internalType": "uint256",
          "name": "tokenId",
          "type": "uint256"
        }
      ],
      "name": "Transfer",
      "type": "event"
    },
    {
      "anonymous": false,
      "inputs": [
        {
          "indexed": true,
          "internalType": "uint256",
          "name": "tokenId",
          "type": "uint256"
        },
        {
          "indexed": true,
          "internalType": "address",
          "name": "user",
          "type": "address"
        },
        {
          "indexed": false,
          "internalType": "uint64",
          "name": "expires",
          "type": "uint64"
        }
      ],
      "name": "UpdateUser",
      "type": "event"
    },
    {
      "inputs": [
        {
          "internalType": "address",
          "name": "to",
          "type": "address"
        },
        {
          "internalType": "uint256",
          "name": "tokenId",
          "type": "uint256"
        }
      ],
      "name": "approve",
      "outputs": [],
      "stateMutability": "nonpayable",
      "type": "function"
    },
    {
      "inputs": [
        {
          "internalType": "address",
          "name": "owner",
          "type": "address"
        }
      ],
      "name": "balanceOf",
      "outputs": [
        {
          "internalType": "uint256",
          "name": "",
          "type": "uint256"
        }
      ],
      "stateMutability": "view",
      "type": "function"
    },
    {
      "inputs": [
        {
          "internalType": "uint256",
          "name": "tokenId",
          "type": "uint256"
        }
      ],
      "name": "getApproved",
      "outputs": [
        {
          "internalType": "address",
          "name": "",
          "type": "address"
        }
      ],
      "stateMutability": "view",
      "type": "function"
    },
    {
      "inputs": [
        {
          "internalType": "address",
          "name": "owner",
          "type": "address"
        },
        {
          "internalType": "address",
          "name": "operator",
          "type": "address"
        }
      ],
      "name": "isApprovedForAll",
      "outputs": [
        {
          "internalType": "bool",
          "name": "",
          "type": "bool"
        }
      ],
      "stateMutability": "view",
      "type": "function"
    },
    {
      "inputs": [
        {
          "internalType": "address",
          "name": "to",
          "type": "address"
        }
      ],
      "name": "mint",
      "outputs": [
        {
          "internalType": "uint256",
          "name": "tokenId",
          "type": "uint256"
        }
      ],
      "stateMutability": "nonpayable",
      "type": "function"
    },
    {
      "inputs": [],
      "name": "name",
      "outputs": [
        {
          "internalType": "string",
          "name": "",
          "type": "string"
        }
      ],
      "stateMutability": "view",
      "type": "function"
    },
    {
      "inputs": [],
      "name": "owner",
      "outputs": [
        {
          "internalType": "address",
          "name": "",
          "type": "address"
        }
      ],
      "stateMutability": "view",
      "type": "function"
    },
    {
      "inputs": [
        {
          "internalType": "uint256",
          "name": "tokenId",
          "type": "uint256"
        }
      ],
      "name": "ownerOf",
      "outputs": [
        {
          "internalType": "address",
          "name": "",
          "type": "address"
        }
      ],
      "stateMutability": "view",
      "type": "function"
    },
    {
      "inputs": [],
      "name": "renounceOwnership",
      "outputs": [],
      "stateMutability": "nonpayable",
      "type": "function"
    },
    {
      "inputs": [
        {
          "internalType": "address",
          "name": "from",
          "type": "address"
        },
        {
          "internalType": "address",
          "name": "to",
          "type": "address"
        },
        {
          "internalType": "uint256",
          "name": "tokenId",
          "type": "uint256"
        }
      ],
      "name": "safeTransferFrom",
      "outputs": [],
      "stateMutability": "nonpayable",
      "type": "function"
    },
    {
      "inputs": [
        {
          "internalType": "address",
          "name": "from",
          "type": "address"
        },
        {
          "internalType": "address",
          "name": "to",
          "type": "address"
        },
        {
          "internalType": "uint256",
          "name": "tokenId",
          "type": "uint256"
        },
        {
          "internalType": "bytes",
          "name": "data",
          "type": "bytes"
        }
      ],
      "name": "safeTransferFrom",
      "outputs": [],
      "stateMutability": "nonpayable",
      "type": "function"
    },
    {
      "inputs": [
        {
          "internalType": "address",
          "name": "operator",
          "type": "address"
        },
        {
          "internalType": "bool",
          "name": "approved",
          "type": "bool"
        }
      ],
      "name": "setApprovalForAll",
      "outputs": [],
      "stateMutability": "nonpayable",
      "type": "function"
    },
    {
      "inputs": [
        {
          "internalType": "uint256",
          "name": "tokenId",
          "type": "uint256"
        },
        {
          "internalType": "address",
          "name": "user",
          "type": "address"
        },
        {
          "internalType": "uint64",
          "name": "expires",
          "type": "uint64"
        }
      ],
      "name": "setUser",
      "outputs": [],
      "stateMutability": "nonpayable",
      "type": "function"
    },
    {
      "inputs": [
        {
          "internalType": "bytes4",
          "name": "interfaceId",
          "type": "bytes4"
        }
      ],
      "name": "supportsInterface",
      "outputs": [
        {
          "internalType": "bool",
          "name": "",
          "type": "bool"
        }
      ],
      "stateMutability": "view",
      "type": "function"
    },
    {
      "inputs": [],
      "name": "symbol",
      "outputs": [
        {
          "internalType": "string",
          "name": "",
          "type": "string"
        }
      ],
      "stateMutability": "view",
      "type": "function"
    },
    {
      "inputs": [
        {
          "internalType": "uint256",
          "name": "tokenId",
          "type": "uint256"
        }
      ],
      "name": "tokenURI",
      "outputs": [
        {
          "internalType": "string",
          "name": "",
          "type": "string"
        }
      ],
      "stateMutability": "view",
      "type": "function"
    },
    {
      "inputs": [
        {
          "internalType": "address",
          "name": "from",
          "type": "address"
        },
        {
          "internalType": "address",
          "name": "to",
          "type": "address"
        },
        {
          "internalType": "uint256",
          "name": "tokenId",
          "type": "uint256"
        }
      ],
      "name": "transferFrom",
      "outputs": [],
      "stateMutability": "nonpayable",
      "type": "function"
    },
    {
      "inputs": [
        {
          "internalType": "address",
          "name": "newOwner",
          "type": "address"
        }
      ],
      "name": "transferOwnership",
      "outputs": [],
      "stateMutability": "nonpayable",
      "type": "function"
    },
    {
      "inputs": [
        {
          "internalType": "uint256",
          "name": "tokenId",
          "type": "uint256"
        }
      ],
      "name": "userExpires",
      "outputs": [
        {
          "internalType": "uint256",
          "name": "",
          "type": "uint256"
        }
      ],
      "stateMutability": "view",
      "type": "function"
    },
    {
      "inputs": [
        {
          "internalType": "uint256",
          "name": "tokenId",
          "type": "uint256"
        }
      ],
      "name": "userOf",
      "outputs": [
        {
          "internalType": "address",
          "name": "",
          "type": "address"
        }
      ],
      "stateMutability": "view",
      "type": "function"
    }
  ],
  "bytecode": "0x60806040523480156200001157600080fd5b506040516200179b3803806200179b8339810160408190526200003491620001b5565b8083836000620000458382620002d3565b506001620000548282620002d3565b5050506001600160a01b0381166200008657604051631e4fbdf760e01b81526000600482015260240160405180910390fd5b62000091816200009b565b505050506200039f565b600780546001600160a01b038381166001600160a01b0319831681179093556040519116919082907f8be0079c531659141344cd1fd0a4f28419497f9722a3daafe3b4186f6b6457e090600090a35050565b634e487b7160e01b600052604160045260246000fd5b600082601f8301126200011557600080fd5b81516001600160401b0380821115620001325762000132620000ed565b604051601f8301601f19908116603f011681019082821181831017156200015d576200015d620000ed565b81604052838152602092508660208588010111156200017b57600080fd5b600091505b838210156200019f578582018301518183018401529082019062000180565b6000602085830101528094505050505092915050565b600080600060608486031215620001cb57600080fd5b83516001600160401b0380821115620001e357600080fd5b620001f18783880162000103565b945060208601519150808211156200020857600080fd5b50620002178682870162000103565b604086015190935090506001600160a01b03811681146200023757600080fd5b809150509250925092565b600181811c908216806200025757607f821691505b6020821081036200027857634e487b7160e01b600052602260045260246000fd5b50919050565b601f821115620002ce576000816000526020600020601f850160051c81016020861015620002a95750805b601f850160051c820191505b81811015620002ca57828155600101620002b5565b5050505b505050565b81516001600160401b03811115620002ef57620002ef620000ed565b620003078162000300845462000242565b846200027e565b602080601f8311600181146200033f5760008415620003265750858301515b600019600386901b1c1916600185901b178555620002ca565b600085815260208120601f198616915b8281101562000370578886015182559484019460019091019084016200034f565b50858210156200038f5787850151600019600388901b60f8161c191681555b5050505050600190811b01905550565b6113ec80620003af6000396000f3fe608060405234801561001057600080fd5b506004361061012c5760003560e01c80638da5cb5b116100ad578063c2f1f14a11610071578063c2f1f14a14610293578063c87b56dd146102a6578063e030565e146102b9578063e985e9c5146102cc578063f2fde38b146102df57600080fd5b80638da5cb5b146102235780638fc88c481461023457806395d89b4114610265578063a22cb4651461026d578063b88d4fde1461028057600080fd5b806342842e0e116100f457806342842e0e146101c15780636352211e146101d45780636a627842146101e757806370a0823114610208578063715018a61461021b57600080fd5b806301ffc9a71461013157806306fdde0314610159578063081812fc1461016e578063095ea7b31461019957806323b872dd146101ae575b600080fd5b61014461013f366004610fed565b6102f2565b60405190151581526020015b60405180910390f35b61016161031d565b604051610150919061105a565b61018161017c36600461106d565b6103af565b6040516001600160a01b039091168152602001610150565b6101ac6101a736600461109d565b6103d8565b005b6101ac6101bc3660046110c7565b6103e7565b6101ac6101cf3660046110c7565b610477565b6101816101e236600461106d565b610497565b6101fa6101f5366004611103565b6104a2565b604051908152602001610150565b6101fa610216366004611103565b6104d1565b6101ac610519565b6007546001600160a01b0316610181565b6101fa61024236600461106d565b600090815260066020526040902054600160a01b900467ffffffffffffffff1690565b61016161052d565b6101ac61027b36600461111e565b61053c565b6101ac61028e366004611170565b610547565b6101816102a136600461106d565b61055f565b6101616102b436600461106d565b6105aa565b6101ac6102c736600461124c565b61061f565b6101446102da366004611299565b610726565b6101ac6102ed366004611103565b610754565b60006001600160e01b03198216632b424ad760e21b1480610317575061031782610792565b92915050565b60606000805461032c906112cc565b80601f0160208091040260200160405190810160405280929190818152602001828054610358906112cc565b80156103a55780601f1061037a576101008083540402835291602001916103a5565b820191906000526020600020905b81548152906001019060200180831161038857829003601f168201915b5050505050905090565b60006103ba826107e2565b506000828152600460205260409020546001600160a01b0316610317565b6103e382823361081b565b5050565b6001600160a01b03821661041657604051633250574960e11b8152600060048201526024015b60405180910390fd5b6000610423838333610828565b9050836001600160a01b0316816001600160a01b031614610471576040516364283d7b60e01b81526001600160a01b038086166004830152602482018490528216604482015260640161040d565b50505050565b61049283838360405180602001604052806000815250610547565b505050565b6000610317826107e2565b60006104ac6108ce565b6008600081546104bb90611306565b918290555090506104cc82826108fb565b919050565b60006001600160a01b0382166104fd576040516322718ad960e21b81526000600482015260240161040d565b506001600160a01b031660009081526003602052604090205490565b6105216108ce565b61052b6000610915565b565b60606001805461032c906112cc565b6103e3338383610967565b6105528484846103e7565b61047133858585856109fe565b60008181526006602052604081205442600160a01b90910467ffffffffffffffff16106105a257506000908152600660205260409020546001600160a01b031690565b506000919050565b60606105b5826107e2565b5060006105cd60408051602081019091526000815290565b905060008151116105ed5760405180602001604052806000815250610618565b806105f784610b29565b60405160200161060892919061132d565b6040516020818303038152906040525b9392505050565b600083815260026020526040902054610642906001600160a01b03163385610bbc565b61068e5760405162461bcd60e51b815260206004820152601760248201527f455243343930373a206e6f7420617574686f72697a6564000000000000000000604482015260640161040d565b6040805180820182526001600160a01b0384811680835267ffffffffffffffff858116602080860182815260008b81526006835288902096518754915196166001600160e01b031990911617600160a01b959093169490940291909117909355925191825285917f4e06b4e7000e659094299b3533b47b6aa8ad048e95e872d23d1f4ee55af89cfe91015b60405180910390a3505050565b6001600160a01b03918216600090815260056020908152604080832093909416825291909152205460ff1690565b61075c6108ce565b6001600160a01b03811661078657604051631e4fbdf760e01b81526000600482015260240161040d565b61078f81610915565b50565b60006001600160e01b031982166380ac58cd60e01b14806107c357506001600160e01b03198216635b5e139f60e01b145b8061031757506301ffc9a760e01b6001600160e01b0319831614610317565b6000818152600260205260408120546001600160a01b03168061031757604051637e27328960e01b81526004810184905260240161040d565b6104928383836001610c1f565b600080610836858585610d25565b9050846001600160a01b0316816001600160a01b03161415801561087057506000848152600660205260409020546001600160a01b031615155b156108c657600084815260066020908152604080832080546001600160e01b03191690555182815286917f4e06b4e7000e659094299b3533b47b6aa8ad048e95e872d23d1f4ee55af89cfe910160405180910390a35b949350505050565b6007546001600160a01b0316331461052b5760405163118cdaa760e01b815233600482015260240161040d565b6103e3828260405180602001604052806000815250610e1e565b600780546001600160a01b038381166001600160a01b0319831681179093556040519116919082907f8be0079c531659141344cd1fd0a4f28419497f9722a3daafe3b4186f6b6457e090600090a35050565b6001600160a01b03821661099957604051630b61174360e31b81526001600160a01b038316600482015260240161040d565b6001600160a01b03838116600081815260056020908152604080832094871680845294825291829020805460ff191686151590811790915591519182527f17307eab39ab6107e8899845ad3d59bd9653f200f220920489ca2b5937696c319101610719565b6001600160a01b0383163b15610b2257604051630a85bd0160e11b81526001600160a01b0384169063150b7a0290610a4090889088908790879060040161135c565b6020604051808303816000875af1925050508015610a7b575060408051601f3d908101601f19168201909252610a7891810190611399565b60015b610ae4573d808015610aa9576040519150601f19603f3d011682016040523d82523d6000602084013e610aae565b606091505b508051600003610adc57604051633250574960e11b81526001600160a01b038516600482015260240161040d565b805160208201fd5b6001600160e01b03198116630a85bd0160e11b14610b2057604051633250574960e11b81526001600160a01b038516600482015260240161040d565b505b5050505050565b60606000610b3683610e36565b600101905060008167ffffffffffffffff811115610b5657610b5661115a565b6040519080825280601f01601f191660200182016040528015610b80576020820181803683370190505b5090508181016020015b600019016f181899199a1a9b1b9c1cb0b131b232b360811b600a86061a8153600a8504945084610b8a57509392505050565b60006001600160a01b038316158015906108c65750826001600160a01b0316846001600160a01b03161480610bf65750610bf68484610726565b806108c65750506000908152600460205260409020546001600160a01b03908116911614919050565b8080610c3357506001600160a01b03821615155b15610cf5576000610c43846107e2565b90506001600160a01b03831615801590610c6f5750826001600160a01b0316816001600160a01b031614155b8015610c825750610c808184610726565b155b15610cab5760405163a9fbf51f60e01b81526001600160a01b038416600482015260240161040d565b8115610cf35783856001600160a01b0316826001600160a01b03167f8c5be1e5ebec7d5bd14f71427d1e84f3dd0314c0f7b2291e5b200ac8c7c3b92560405160405180910390a45b505b5050600090815260046020526040902080546001600160a01b0319166001600160a01b0392909216919091179055565b6000828152600260205260408120546001600160a01b0390811690831615610d5257610d52818486610f0e565b6001600160a01b03811615610d9057610d6f600085600080610c1f565b6001600160a01b038116600090815260036020526040902080546000190190555b6001600160a01b03851615610dbf576001600160a01b0385166000908152600360205260409020805460010190555b60008481526002602052604080822080546001600160a01b0319166001600160a01b0389811691821790925591518793918516917fddf252ad1be2c89b69c2b068fc378daa952ba7f163c4a11628f55a4df523b3ef91a4949350505050565b610e288383610f72565b6104923360008585856109fe565b60008072184f03e93ff9f4daa797ed6e38ed64bf6a1f0160401b8310610e755772184f03e93ff9f4daa797ed6e38ed64bf6a1f0160401b830492506040015b6d04ee2d6d415b85acef81000000008310610ea1576d04ee2d6d415b85acef8100000000830492506020015b662386f26fc100008310610ebf57662386f26fc10000830492506010015b6305f5e1008310610ed7576305f5e100830492506008015b6127108310610eeb57612710830492506004015b60648310610efd576064830492506002015b600a83106103175760010192915050565b610f19838383610bbc565b610492576001600160a01b038316610f4757604051637e27328960e01b81526004810182905260240161040d565b60405163177e802f60e01b81526001600160a01b03831660048201526024810182905260440161040d565b6001600160a01b038216610f9c57604051633250574960e11b81526000600482015260240161040d565b6000610faa83836000610828565b90506001600160a01b03811615610492576040516339e3563760e11b81526000600482015260240161040d565b6001600160e01b03198116811461078f57600080fd5b600060208284031215610fff57600080fd5b813561061881610fd7565b60005b8381101561102557818101518382015260200161100d565b50506000910152565b6000815180845261104681602086016020860161100a565b601f01601f19169290920160200192915050565b602081526000610618602083018461102e565b60006020828403121561107f57600080fd5b5035919050565b80356001600160a01b03811681146104cc57600080fd5b600080604083850312156110b057600080fd5b6110b983611086565b946020939093013593505050565b6000806000606084860312156110dc57600080fd5b6110e584611086565b92506110f360208501611086565b9150604084013590509250925092565b60006020828403121561111557600080fd5b61061882611086565b6000806040838503121561113157600080fd5b61113a83611086565b91506020830135801515811461114f57600080fd5b809150509250929050565b634e487b7160e01b600052604160045260246000fd5b6000806000806080858703121561118657600080fd5b61118f85611086565b935061119d60208601611086565b925060408501359150606085013567ffffffffffffffff808211156111c157600080fd5b818701915087601f8301126111d557600080fd5b8135818111156111e7576111e761115a565b604051601f8201601f19908116603f0116810190838211818310171561120f5761120f61115a565b816040528281528a602084870101111561122857600080fd5b82602086016020830137600060208483010152809550505050505092959194509250565b60008060006060848603121561126157600080fd5b8335925061127160208501611086565b9150604084013567ffffffffffffffff8116811461128e57600080fd5b809150509250925092565b600080604083850312156112ac57600080fd5b6112b583611086565b91506112c360208401611086565b90509250929050565b600181811c908216806112e057607f821691505b60208210810361130057634e487b7160e01b600052602260045260246000fd5b50919050565b60006001820161132657634e487b7160e01b600052601160045260246000fd5b5060010190565b6000835161133f81846020880161100a565b83519083019061135381836020880161100a565b01949350505050565b6001600160a01b038581168252841660208201526040810183905260806060820181905260009061138f9083018461102e565b9695505050505050565b6000602082840312156113ab57600080fd5b815161061881610fd756fea2646970667358221220394e726611a0266c20213f06bce55b1f584570e16c5047e49899887e552e0c6164736f6c63430008180033",
  "linkReferences": {},
  "deployedLinkReferences": {}
}